{
  "abi": [
    {
      "inputs": [
        {
          "internalType": "contract IERC721",
          "name": "_nftCollection",
          "type": "address"
        },
        {
          "internalType": "contract IERC20",
          "name": "_rewardToken",
          "type": "address"
        }
      ],
      "stateMutability": "nonpayable",
      "type": "constructor"
    },
    {
      "inputs": [
        {
          "internalType": "address",
          "name": "_staker",
          "type": "address"
        }
      ],
      "name": "availableRewards",
      "outputs": [
        {
          "internalType": "uint256",
          "name": "",
          "type": "uint256"
        }
      ],
      "stateMutability": "view",
      "type": "function"
    },
    {
      "inputs": [],
      "name": "claimRewards",
      "outputs": [],
      "stateMutability": "nonpayable",
      "type": "function"
    },
    {
      "inputs": [
        {
          "internalType": "address",
          "name": "_user",
          "type": "address"
        }
      ],
      "name": "getStakedToken",
      "outputs": [
        {
          "components": [
            {
              "internalType": "address",
              "name": "staker",
              "type": "address"
            },
            {
              "internalType": "uint256",
              "name": "tokenId",
              "type": "uint256"
            }
          ],
          "internalType": "struct ERC721Staking.StakedToken[]",
          "name": "",
          "type": "tuple[]"
        }
      ],
      "stateMutability": "view",
      "type": "function"
    },
    {
      "inputs": [],
      "name": "nftCollection",
      "outputs": [
        {
          "internalType": "contract IERC721",
          "name": "",
          "type": "address"
        }
      ],
      "stateMutability": "view",
      "type": "function"
    },
    {
      "inputs": [],
      "name": "rewardsToken",
      "outputs": [
        {
          "internalType": "contract IERC20",
          "name": "",
          "type": "address"
        }
      ],
      "stateMutability": "view",
      "type": "function"
    },
    {
      "inputs": [
        {
          "internalType": "uint256",
          "name": "_tokenId",
          "type": "uint256"
        }
      ],
      "name": "stake",
      "outputs": [],
      "stateMutability": "nonpayable",
      "type": "function"
    },
    {
      "inputs": [
        {
          "internalType": "uint256",
          "name": "",
          "type": "uint256"
        }
      ],
      "name": "stakerAddress",
      "outputs": [
        {
          "internalType": "address",
          "name": "",
          "type": "address"
        }
      ],
      "stateMutability": "view",
      "type": "function"
    },
    {
      "inputs": [
        {
          "internalType": "address",
          "name": "",
          "type": "address"
        }
      ],
      "name": "stakers",
      "outputs": [
        {
          "internalType": "uint256",
          "name": "amountStaked",
          "type": "uint256"
        },
        {
          "internalType": "uint256",
          "name": "timeOfLastUpdate",
          "type": "uint256"
        },
        {
          "internalType": "uint256",
          "name": "unclaimedRewards",
          "type": "uint256"
        }
      ],
      "stateMutability": "view",
      "type": "function"
    },
    {
      "inputs": [
        {
          "internalType": "uint256",
          "name": "_tokenId",
          "type": "uint256"
        }
      ],
      "name": "withdraw",
      "outputs": [],
      "stateMutability": "nonpayable",
      "type": "function"
    }
  ],
  "devdoc": {
    "kind": "dev",
    "methods": {},
    "version": 1
  },
  "evm": {
    "assembly": "    /* \"NFTStaking.sol\":303:5644  contract ERC721Staking is ReentrancyGuard {... */\n  mstore(0x40, 0xc0)\n    /* \"NFTStaking.sol\":600:741  constructor(IERC721 _nftCollection, IERC20 _rewardToken) {... */\n  callvalue\n  dup1\n  iszero\n  tag_1\n  jumpi\n  0x00\n  dup1\n  revert\ntag_1:\n  pop\n  mload(0x40)\n  sub(codesize, bytecodeSize)\n  dup1\n  bytecodeSize\n  dup4\n  codecopy\n  dup2\n  add\n  0x40\n  dup2\n  swap1\n  mstore\n  tag_2\n  swap2\n  tag_3\n  jump\t// in\ntag_2:\n    /* \"@openzeppelin/contracts/security/ReentrancyGuard.sol\":1716:1717   */\n  0x01\n    /* \"@openzeppelin/contracts/security/ReentrancyGuard.sol\":1821:1828   */\n  0x00\n    /* \"@openzeppelin/contracts/security/ReentrancyGuard.sol\":1821:1843   */\n  sstore\n  sub(shl(0xa0, 0x01), 0x01)\n    /* \"NFTStaking.sol\":667:697  nftCollection = _nftCollection */\n  swap2\n  dup3\n  and\n  0xa0\n  mstore\n    /* \"NFTStaking.sol\":707:734  rewardsToken = _rewardToken */\n  and\n  0x80\n  mstore\n    /* \"NFTStaking.sol\":303:5644  contract ERC721Staking is ReentrancyGuard {... */\n  jump(tag_10)\n    /* \"#utility.yul\":14:154   */\ntag_9:\n  sub(shl(0xa0, 0x01), 0x01)\n    /* \"#utility.yul\":98:129   */\n  dup2\n  and\n    /* \"#utility.yul\":88:130   */\n  dup2\n  eq\n    /* \"#utility.yul\":78:148   */\n  tag_12\n  jumpi\n    /* \"#utility.yul\":144:145   */\n  0x00\n    /* \"#utility.yul\":141:142   */\n  dup1\n    /* \"#utility.yul\":134:146   */\n  revert\n    /* \"#utility.yul\":78:148   */\ntag_12:\n    /* \"#utility.yul\":14:154   */\n  pop\n  jump\t// out\n    /* \"#utility.yul\":159:592   */\ntag_3:\n    /* \"#utility.yul\":268:274   */\n  0x00\n    /* \"#utility.yul\":276:282   */\n  dup1\n    /* \"#utility.yul\":329:331   */\n  0x40\n    /* \"#utility.yul\":317:326   */\n  dup4\n    /* \"#utility.yul\":308:315   */\n  dup6\n    /* \"#utility.yul\":304:327   */\n  sub\n    /* \"#utility.yul\":300:332   */\n  slt\n    /* \"#utility.yul\":297:349   */\n  iszero\n  tag_14\n  jumpi\n    /* \"#utility.yul\":345:346   */\n  0x00\n    /* \"#utility.yul\":342:343   */\n  dup1\n    /* \"#utility.yul\":335:347   */\n  revert\n    /* \"#utility.yul\":297:349   */\ntag_14:\n    /* \"#utility.yul\":377:386   */\n  dup3\n    /* \"#utility.yul\":371:387   */\n  mload\n    /* \"#utility.yul\":396:436   */\n  tag_15\n    /* \"#utility.yul\":430:435   */\n  dup2\n    /* \"#utility.yul\":396:436   */\n  tag_9\n  jump\t// in\ntag_15:\n    /* \"#utility.yul\":505:507   */\n  0x20\n    /* \"#utility.yul\":490:508   */\n  dup5\n  add\n    /* \"#utility.yul\":484:509   */\n  mload\n    /* \"#utility.yul\":455:460   */\n  swap1\n  swap3\n  pop\n    /* \"#utility.yul\":518:560   */\n  tag_16\n    /* \"#utility.yul\":484:509   */\n  dup2\n    /* \"#utility.yul\":518:560   */\n  tag_9\n  jump\t// in\ntag_16:\n    /* \"#utility.yul\":579:586   */\n  dup1\n    /* \"#utility.yul\":569:586   */\n  swap2\n  pop\n  pop\n    /* \"#utility.yul\":159:592   */\n  swap3\n  pop\n  swap3\n  swap1\n  pop\n  jump\t// out\ntag_10:\n    /* \"NFTStaking.sol\":303:5644  contract ERC721Staking is ReentrancyGuard {... */\n  mload(0x80)\n  mload(0xa0)\n  codecopy(0x00, dataOffset(sub_0), dataSize(sub_0))\n  0x00\n  assignImmutable(\"0x8e8fab5f003314da8d1873ea7720e8d9f47650136d916064d1edb8a11d682624\")\n  0x00\n  assignImmutable(\"0x5c4c6aa067b6f8e6cb38e6ab843832a94d1712d661a04d73c517d6a1931a9e5d\")\n  return(0x00, dataSize(sub_0))\nstop\n\nsub_0: assembly {\n        /* \"NFTStaking.sol\":303:5644  contract ERC721Staking is ReentrancyGuard {... */\n      mstore(0x40, 0x80)\n      callvalue\n      dup1\n      iszero\n      tag_1\n      jumpi\n      0x00\n      dup1\n      revert\n    tag_1:\n      pop\n      jumpi(tag_2, lt(calldatasize, 0x04))\n      shr(0xe0, calldataload(0x00))\n      dup1\n      0x9168ae72\n      gt\n      tag_12\n      jumpi\n      dup1\n      0xa694fc3a\n      gt\n      tag_13\n      jumpi\n      dup1\n      0xa694fc3a\n      eq\n      tag_9\n      jumpi\n      dup1\n      0xd1af0c7d\n      eq\n      tag_10\n      jumpi\n      dup1\n      0xf854a27f\n      eq\n      tag_11\n      jumpi\n      0x00\n      dup1\n      revert\n    tag_13:\n      dup1\n      0x9168ae72\n      eq\n      tag_7\n      jumpi\n      dup1\n      0x94067045\n      eq\n      tag_8\n      jumpi\n      0x00\n      dup1\n      revert\n    tag_12:\n      dup1\n      0x2e1a7d4d\n      eq\n      tag_3\n      jumpi\n      dup1\n      0x372500ab\n      eq\n      tag_4\n      jumpi\n      dup1\n      0x5bce04f7\n      eq\n      tag_5\n      jumpi\n      dup1\n      0x6588103b\n      eq\n      tag_6\n      jumpi\n    tag_2:\n      0x00\n      dup1\n      revert\n        /* \"NFTStaking.sol\":2811:3928  function withdraw(uint256 _tokenId) external nonReentrant {... */\n    tag_3:\n      tag_14\n      tag_15\n      calldatasize\n      0x04\n      tag_16\n      jump\t// in\n    tag_15:\n      tag_17\n      jump\t// in\n    tag_14:\n      stop\n        /* \"NFTStaking.sol\":3934:4315  function claimRewards() external {... */\n    tag_4:\n      tag_14\n      tag_19\n      jump\t// in\n        /* \"NFTStaking.sol\":4829:5642  function getStakedToken(address _user)... */\n    tag_5:\n      tag_20\n      tag_21\n      calldatasize\n      0x04\n      tag_22\n      jump\t// in\n    tag_21:\n      tag_23\n      jump\t// in\n    tag_20:\n      mload(0x40)\n      tag_24\n      swap2\n      swap1\n      tag_25\n      jump\t// in\n    tag_24:\n      mload(0x40)\n      dup1\n      swap2\n      sub\n      swap1\n      return\n        /* \"NFTStaking.sol\":465:503  IERC721 public immutable nftCollection */\n    tag_6:\n      tag_26\n      immutable(\"0x8e8fab5f003314da8d1873ea7720e8d9f47650136d916064d1edb8a11d682624\")\n      dup2\n      jump\n    tag_26:\n      mload(0x40)\n      sub(shl(0xa0, 0x01), 0x01)\n        /* \"#utility.yul\":1636:1691   */\n      swap1\n      swap2\n      and\n        /* \"#utility.yul\":1618:1692   */\n      dup2\n      mstore\n        /* \"#utility.yul\":1606:1608   */\n      0x20\n        /* \"#utility.yul\":1591:1609   */\n      add\n        /* \"NFTStaking.sol\":465:503  IERC721 public immutable nftCollection */\n      tag_24\n        /* \"#utility.yul\":1456:1698   */\n      jump\n        /* \"NFTStaking.sol\":1472:1513  mapping(address => Staker) public stakers */\n    tag_7:\n      tag_30\n      tag_31\n      calldatasize\n      0x04\n      tag_22\n      jump\t// in\n    tag_31:\n      0x02\n      0x20\n      dup2\n      swap1\n      mstore\n      0x00\n      swap2\n      dup3\n      mstore\n      0x40\n      swap1\n      swap2\n      keccak256\n      dup1\n      sload\n      swap2\n      dup2\n      add\n      sload\n      0x03\n      swap1\n      swap2\n      add\n      sload\n      dup4\n      jump\n    tag_30:\n      0x40\n      dup1\n      mload\n        /* \"#utility.yul\":1905:1930   */\n      swap4\n      dup5\n      mstore\n        /* \"#utility.yul\":1961:1963   */\n      0x20\n        /* \"#utility.yul\":1946:1964   */\n      dup5\n      add\n        /* \"#utility.yul\":1939:1973   */\n      swap3\n      swap1\n      swap3\n      mstore\n        /* \"#utility.yul\":1989:2007   */\n      swap1\n      dup3\n      add\n        /* \"#utility.yul\":1982:2016   */\n      mstore\n        /* \"#utility.yul\":1893:1895   */\n      0x60\n        /* \"#utility.yul\":1878:1896   */\n      add\n        /* \"NFTStaking.sol\":1472:1513  mapping(address => Staker) public stakers */\n      tag_24\n        /* \"#utility.yul\":1703:2022   */\n      jump\n        /* \"NFTStaking.sol\":1630:1678  mapping(uint256 => address) public stakerAddress */\n    tag_8:\n      tag_26\n      tag_36\n      calldatasize\n      0x04\n      tag_16\n      jump\t// in\n    tag_36:\n      mstore(0x20, 0x03)\n      0x00\n      swap1\n      dup2\n      mstore\n      0x40\n      swap1\n      keccak256\n      sload\n      sub(shl(0xa0, 0x01), 0x01)\n      and\n      dup2\n      jump\n        /* \"NFTStaking.sol\":1685:2805  function stake(uint256 _tokenId) external nonReentrant {... */\n    tag_9:\n      tag_14\n      tag_41\n      calldatasize\n      0x04\n      tag_16\n      jump\t// in\n    tag_41:\n      tag_42\n      jump\t// in\n        /* \"NFTStaking.sol\":423:459  IERC20 public immutable rewardsToken */\n    tag_10:\n      tag_26\n      immutable(\"0x5c4c6aa067b6f8e6cb38e6ab843832a94d1712d661a04d73c517d6a1931a9e5d\")\n      dup2\n      jump\n        /* \"NFTStaking.sol\":4618:4823  function availableRewards(address _staker) public view returns (uint256) {... */\n    tag_11:\n      tag_47\n      tag_48\n      calldatasize\n      0x04\n      tag_22\n      jump\t// in\n    tag_48:\n      tag_49\n      jump\t// in\n    tag_47:\n      mload(0x40)\n        /* \"#utility.yul\":2649:2674   */\n      swap1\n      dup2\n      mstore\n        /* \"#utility.yul\":2637:2639   */\n      0x20\n        /* \"#utility.yul\":2622:2640   */\n      add\n        /* \"NFTStaking.sol\":4618:4823  function availableRewards(address _staker) public view returns (uint256) {... */\n      tag_24\n        /* \"#utility.yul\":2503:2680   */\n      jump\n        /* \"NFTStaking.sol\":2811:3928  function withdraw(uint256 _tokenId) external nonReentrant {... */\n    tag_17:\n        /* \"@openzeppelin/contracts/security/ReentrancyGuard.sol\":2261:2282   */\n      tag_53\n        /* \"@openzeppelin/contracts/security/ReentrancyGuard.sol\":2261:2280   */\n      tag_54\n        /* \"@openzeppelin/contracts/security/ReentrancyGuard.sol\":2261:2282   */\n      jump\t// in\n    tag_53:\n        /* \"NFTStaking.sol\":2987:2997  msg.sender */\n      caller\n        /* \"NFTStaking.sol\":3014:3015  0 */\n      0x00\n        /* \"NFTStaking.sol\":2979:2998  stakers[msg.sender] */\n      swap1\n      dup2\n      mstore\n        /* \"NFTStaking.sol\":2979:2986  stakers */\n      0x02\n        /* \"NFTStaking.sol\":2979:2998  stakers[msg.sender] */\n      0x20\n      mstore\n      0x40\n      swap1\n      keccak256\n        /* \"NFTStaking.sol\":2979:3011  stakers[msg.sender].amountStaked */\n      sload\n        /* \"NFTStaking.sol\":2958:3065  require(... */\n      tag_56\n      jumpi\n      mload(0x40)\n      shl(0xe5, 0x461bcd)\n      dup2\n      mstore\n        /* \"#utility.yul\":2887:2889   */\n      0x20\n        /* \"NFTStaking.sol\":2958:3065  require(... */\n      0x04\n      dup3\n      add\n        /* \"#utility.yul\":2869:2890   */\n      mstore\n        /* \"#utility.yul\":2926:2928   */\n      0x18\n        /* \"#utility.yul\":2906:2924   */\n      0x24\n      dup3\n      add\n        /* \"#utility.yul\":2899:2929   */\n      mstore\n        /* \"#utility.yul\":2965:2991   */\n      0x596f752068617665206e6f20746f6b656e207374616b65640000000000000000\n        /* \"#utility.yul\":2945:2963   */\n      0x44\n      dup3\n      add\n        /* \"#utility.yul\":2938:2992   */\n      mstore\n        /* \"#utility.yul\":3009:3027   */\n      0x64\n      add\n        /* \"NFTStaking.sol\":2958:3065  require(... */\n    tag_57:\n      mload(0x40)\n      dup1\n      swap2\n      sub\n      swap1\n      revert\n    tag_56:\n        /* \"NFTStaking.sol\":3141:3156  uint256 rewards */\n      0x00\n        /* \"NFTStaking.sol\":3159:3187  calculateRewards(msg.sender) */\n      tag_59\n        /* \"NFTStaking.sol\":3176:3186  msg.sender */\n      caller\n        /* \"NFTStaking.sol\":3159:3175  calculateRewards */\n      tag_60\n        /* \"NFTStaking.sol\":3159:3187  calculateRewards(msg.sender) */\n      jump\t// in\n    tag_59:\n        /* \"NFTStaking.sol\":3205:3215  msg.sender */\n      caller\n        /* \"NFTStaking.sol\":3197:3216  stakers[msg.sender] */\n      0x00\n      swap1\n      dup2\n      mstore\n        /* \"NFTStaking.sol\":3197:3204  stakers */\n      0x02\n        /* \"NFTStaking.sol\":3197:3216  stakers[msg.sender] */\n      0x20\n      mstore\n      0x40\n      dup2\n      keccak256\n        /* \"NFTStaking.sol\":3197:3233  stakers[msg.sender].unclaimedRewards */\n      0x03\n      add\n        /* \"NFTStaking.sol\":3197:3244  stakers[msg.sender].unclaimedRewards += rewards */\n      dup1\n      sload\n        /* \"NFTStaking.sol\":3141:3187  uint256 rewards = calculateRewards(msg.sender) */\n      swap3\n      swap4\n      pop\n      dup4\n      swap3\n        /* \"NFTStaking.sol\":3197:3233  stakers[msg.sender].unclaimedRewards */\n      swap1\n      swap2\n        /* \"NFTStaking.sol\":3197:3216  stakers[msg.sender] */\n      swap1\n        /* \"NFTStaking.sol\":3197:3244  stakers[msg.sender].unclaimedRewards += rewards */\n      tag_61\n      swap1\n        /* \"NFTStaking.sol\":3141:3187  uint256 rewards = calculateRewards(msg.sender) */\n      dup5\n      swap1\n        /* \"NFTStaking.sol\":3197:3244  stakers[msg.sender].unclaimedRewards += rewards */\n      tag_62\n      jump\t// in\n    tag_61:\n      swap1\n      swap2\n      sstore\n      pop\n        /* \"NFTStaking.sol\":3321:3334  uint256 index */\n      0x00\n      swap1\n      pop\n      dup1\n        /* \"NFTStaking.sol\":3348:3568  for (uint256 i = 0; i < stakers[msg.sender].stakedTokens.length; i++) {... */\n    tag_63:\n        /* \"NFTStaking.sol\":3380:3390  msg.sender */\n      caller\n        /* \"NFTStaking.sol\":3372:3391  stakers[msg.sender] */\n      0x00\n      swap1\n      dup2\n      mstore\n        /* \"NFTStaking.sol\":3372:3379  stakers */\n      0x02\n        /* \"NFTStaking.sol\":3372:3391  stakers[msg.sender] */\n      0x20\n      mstore\n      0x40\n      swap1\n      keccak256\n        /* \"NFTStaking.sol\":3372:3404  stakers[msg.sender].stakedTokens */\n      0x01\n      add\n        /* \"NFTStaking.sol\":3372:3411  stakers[msg.sender].stakedTokens.length */\n      sload\n        /* \"NFTStaking.sol\":3368:3411  i < stakers[msg.sender].stakedTokens.length */\n      dup2\n      lt\n        /* \"NFTStaking.sol\":3348:3568  for (uint256 i = 0; i < stakers[msg.sender].stakedTokens.length; i++) {... */\n      iszero\n      tag_64\n      jumpi\n        /* \"NFTStaking.sol\":3444:3454  msg.sender */\n      caller\n        /* \"NFTStaking.sol\":3436:3455  stakers[msg.sender] */\n      0x00\n      swap1\n      dup2\n      mstore\n        /* \"NFTStaking.sol\":3436:3443  stakers */\n      0x02\n        /* \"NFTStaking.sol\":3436:3455  stakers[msg.sender] */\n      0x20\n      mstore\n      0x40\n      swap1\n      keccak256\n        /* \"NFTStaking.sol\":3436:3468  stakers[msg.sender].stakedTokens */\n      0x01\n      add\n        /* \"NFTStaking.sol\":3436:3471  stakers[msg.sender].stakedTokens[i] */\n      dup1\n      sload\n        /* \"NFTStaking.sol\":3483:3491  _tokenId */\n      dup6\n      swap2\n        /* \"NFTStaking.sol\":3436:3468  stakers[msg.sender].stakedTokens */\n      swap1\n        /* \"NFTStaking.sol\":3469:3470  i */\n      dup4\n      swap1\n        /* \"NFTStaking.sol\":3436:3471  stakers[msg.sender].stakedTokens[i] */\n      dup2\n      lt\n      tag_67\n      jumpi\n      tag_67\n      tag_68\n      jump\t// in\n    tag_67:\n      swap1\n      0x00\n      mstore\n      keccak256(0x00, 0x20)\n      swap1\n      0x02\n      mul\n      add\n        /* \"NFTStaking.sol\":3436:3479  stakers[msg.sender].stakedTokens[i].tokenId */\n      0x01\n      add\n      sload\n        /* \"NFTStaking.sol\":3436:3491  stakers[msg.sender].stakedTokens[i].tokenId == _tokenId */\n      sub\n        /* \"NFTStaking.sol\":3432:3558  if (stakers[msg.sender].stakedTokens[i].tokenId == _tokenId) {... */\n      tag_70\n      jumpi\n        /* \"NFTStaking.sol\":3519:3520  i */\n      dup1\n        /* \"NFTStaking.sol\":3511:3520  index = i */\n      swap2\n      pop\n        /* \"NFTStaking.sol\":3538:3543  break */\n      jump(tag_64)\n        /* \"NFTStaking.sol\":3432:3558  if (stakers[msg.sender].stakedTokens[i].tokenId == _tokenId) {... */\n    tag_70:\n        /* \"NFTStaking.sol\":3413:3416  i++ */\n      dup1\n      tag_71\n      dup2\n      tag_72\n      jump\t// in\n    tag_71:\n      swap2\n      pop\n      pop\n        /* \"NFTStaking.sol\":3348:3568  for (uint256 i = 0; i < stakers[msg.sender].stakedTokens.length; i++) {... */\n      jump(tag_63)\n    tag_64:\n      pop\n        /* \"NFTStaking.sol\":3586:3596  msg.sender */\n      caller\n        /* \"NFTStaking.sol\":3635:3636  0 */\n      0x00\n        /* \"NFTStaking.sol\":3578:3597  stakers[msg.sender] */\n      swap1\n      dup2\n      mstore\n        /* \"NFTStaking.sol\":3578:3585  stakers */\n      0x02\n        /* \"NFTStaking.sol\":3578:3597  stakers[msg.sender] */\n      0x20\n      mstore\n      0x40\n      dup2\n      keccak256\n        /* \"NFTStaking.sol\":3578:3610  stakers[msg.sender].stakedTokens */\n      0x01\n      add\n        /* \"NFTStaking.sol\":3578:3617  stakers[msg.sender].stakedTokens[index] */\n      dup1\n      sload\n        /* \"NFTStaking.sol\":3611:3616  index */\n      dup4\n      swap1\n        /* \"NFTStaking.sol\":3578:3617  stakers[msg.sender].stakedTokens[index] */\n      dup2\n      lt\n      tag_74\n      jumpi\n      tag_74\n      tag_68\n      jump\t// in\n    tag_74:\n      0x00\n      swap2\n      dup3\n      mstore\n      0x20\n      dup1\n      dup4\n      keccak256\n      0x02\n      swap3\n      dup4\n      mul\n      add\n        /* \"NFTStaking.sol\":3578:3637  stakers[msg.sender].stakedTokens[index].staker = address(0) */\n      dup1\n      sload\n      not(sub(shl(0xa0, 0x01), 0x01))\n      and\n      sub(shl(0xa0, 0x01), 0x01)\n      swap6\n      swap1\n      swap6\n      and\n      swap5\n      swap1\n      swap5\n      or\n      swap1\n      swap4\n      sstore\n        /* \"NFTStaking.sol\":3656:3666  msg.sender */\n      caller\n        /* \"NFTStaking.sol\":3648:3667  stakers[msg.sender] */\n      dup3\n      mstore\n      swap1\n      swap2\n      mstore\n      0x40\n      dup2\n      keccak256\n        /* \"NFTStaking.sol\":3648:3682  stakers[msg.sender].amountStaked-- */\n      dup1\n      sload\n      swap2\n      tag_76\n      dup4\n      tag_77\n      jump\t// in\n    tag_76:\n      swap1\n      swap2\n      sstore\n      pop\n      pop\n        /* \"NFTStaking.sol\":3727:3728  0 */\n      0x00\n        /* \"NFTStaking.sol\":3693:3716  stakerAddress[_tokenId] */\n      dup4\n      dup2\n      mstore\n        /* \"NFTStaking.sol\":3693:3706  stakerAddress */\n      0x03\n        /* \"NFTStaking.sol\":3693:3716  stakerAddress[_tokenId] */\n      0x20\n      mstore\n      0x40\n      swap1\n      dup2\n      swap1\n      keccak256\n        /* \"NFTStaking.sol\":3693:3729  stakerAddress[_tokenId] = address(0) */\n      dup1\n      sload\n      not(sub(shl(0xa0, 0x01), 0x01))\n      and\n      swap1\n      sstore\n        /* \"NFTStaking.sol\":3793:3856  nftCollection.transferFrom(address(this), msg.sender, _tokenId) */\n      mload\n      shl(0xe0, 0x23b872dd)\n      dup2\n      mstore\n        /* \"NFTStaking.sol\":3828:3832  this */\n      address\n        /* \"NFTStaking.sol\":3793:3856  nftCollection.transferFrom(address(this), msg.sender, _tokenId) */\n      0x04\n      dup3\n      add\n        /* \"#utility.yul\":3976:4010   */\n      mstore\n        /* \"NFTStaking.sol\":3835:3845  msg.sender */\n      caller\n        /* \"#utility.yul\":4026:4044   */\n      0x24\n      dup3\n      add\n        /* \"#utility.yul\":4019:4062   */\n      mstore\n        /* \"#utility.yul\":4078:4096   */\n      0x44\n      dup2\n      add\n        /* \"#utility.yul\":4071:4105   */\n      dup5\n      swap1\n      mstore\n      sub(shl(0xa0, 0x01), 0x01)\n        /* \"NFTStaking.sol\":3793:3806  nftCollection */\n      immutable(\"0x8e8fab5f003314da8d1873ea7720e8d9f47650136d916064d1edb8a11d682624\")\n        /* \"NFTStaking.sol\":3793:3819  nftCollection.transferFrom */\n      and\n      swap1\n      0x23b872dd\n      swap1\n        /* \"#utility.yul\":3888:3906   */\n      0x64\n      add\n        /* \"NFTStaking.sol\":3793:3856  nftCollection.transferFrom(address(this), msg.sender, _tokenId) */\n      0x00\n      mload(0x40)\n      dup1\n      dup4\n      sub\n      dup2\n      0x00\n      dup8\n      dup1\n      extcodesize\n      iszero\n      dup1\n      iszero\n      tag_80\n      jumpi\n      0x00\n      dup1\n      revert\n    tag_80:\n      pop\n      gas\n      call\n      iszero\n      dup1\n      iszero\n      tag_82\n      jumpi\n      returndatasize\n      0x00\n      dup1\n      returndatacopy\n      revert(0x00, returndatasize)\n    tag_82:\n      pop\n      pop\n        /* \"NFTStaking.sol\":3875:3885  msg.sender */\n      caller\n        /* \"NFTStaking.sol\":3867:3886  stakers[msg.sender] */\n      0x00\n      swap1\n      dup2\n      mstore\n        /* \"NFTStaking.sol\":3867:3874  stakers */\n      0x02\n        /* \"NFTStaking.sol\":3867:3886  stakers[msg.sender] */\n      0x20\n      dup2\n      swap1\n      mstore\n      0x40\n      swap1\n      swap2\n      keccak256\n        /* \"NFTStaking.sol\":3906:3921  block.timestamp */\n      timestamp\n        /* \"NFTStaking.sol\":3867:3903  stakers[msg.sender].timeOfLastUpdate */\n      swap2\n      add\n        /* \"NFTStaking.sol\":3867:3921  stakers[msg.sender].timeOfLastUpdate = block.timestamp */\n      sstore\n      pop\n        /* \"@openzeppelin/contracts/security/ReentrancyGuard.sol\":2303:2323   */\n      tag_83\n      swap3\n      pop\n        /* \"@openzeppelin/contracts/security/ReentrancyGuard.sol\":2303:2321   */\n      tag_84\n      swap2\n      pop\n      pop\n        /* \"@openzeppelin/contracts/security/ReentrancyGuard.sol\":2303:2323   */\n      jump\t// in\n    tag_83:\n        /* \"NFTStaking.sol\":2811:3928  function withdraw(uint256 _tokenId) external nonReentrant {... */\n      pop\n      jump\t// out\n        /* \"NFTStaking.sol\":3934:4315  function claimRewards() external {... */\n    tag_19:\n        /* \"NFTStaking.sol\":4046:4056  msg.sender */\n      caller\n        /* \"NFTStaking.sol\":3977:3992  uint256 rewards */\n      0x00\n        /* \"NFTStaking.sol\":4038:4057  stakers[msg.sender] */\n      dup2\n      dup2\n      mstore\n        /* \"NFTStaking.sol\":4038:4045  stakers */\n      0x02\n        /* \"NFTStaking.sol\":4038:4057  stakers[msg.sender] */\n      0x20\n      mstore\n      0x40\n      dup2\n      keccak256\n        /* \"NFTStaking.sol\":4038:4074  stakers[msg.sender].unclaimedRewards */\n      0x03\n      add\n      sload\n        /* \"NFTStaking.sol\":3977:3992  uint256 rewards */\n      swap1\n      swap2\n        /* \"NFTStaking.sol\":3995:4023  calculateRewards(msg.sender) */\n      tag_86\n      swap1\n        /* \"NFTStaking.sol\":3995:4011  calculateRewards */\n      tag_60\n        /* \"NFTStaking.sol\":3995:4023  calculateRewards(msg.sender) */\n      jump\t// in\n    tag_86:\n        /* \"NFTStaking.sol\":3995:4074  calculateRewards(msg.sender) +... */\n      tag_87\n      swap2\n      swap1\n      tag_62\n      jump\t// in\n    tag_87:\n        /* \"NFTStaking.sol\":3977:4074  uint256 rewards = calculateRewards(msg.sender) +... */\n      swap1\n      pop\n        /* \"NFTStaking.sol\":4103:4104  0 */\n      0x00\n        /* \"NFTStaking.sol\":4093:4100  rewards */\n      dup2\n        /* \"NFTStaking.sol\":4093:4104  rewards > 0 */\n      gt\n        /* \"NFTStaking.sol\":4085:4137  require(rewards > 0, \"You have no rewards to claim\") */\n      tag_88\n      jumpi\n      mload(0x40)\n      shl(0xe5, 0x461bcd)\n      dup2\n      mstore\n        /* \"#utility.yul\":4318:4320   */\n      0x20\n        /* \"NFTStaking.sol\":4085:4137  require(rewards > 0, \"You have no rewards to claim\") */\n      0x04\n      dup3\n      add\n        /* \"#utility.yul\":4300:4321   */\n      mstore\n        /* \"#utility.yul\":4357:4359   */\n      0x1c\n        /* \"#utility.yul\":4337:4355   */\n      0x24\n      dup3\n      add\n        /* \"#utility.yul\":4330:4360   */\n      mstore\n        /* \"#utility.yul\":4396:4426   */\n      0x596f752068617665206e6f207265776172647320746f20636c61696d00000000\n        /* \"#utility.yul\":4376:4394   */\n      0x44\n      dup3\n      add\n        /* \"#utility.yul\":4369:4427   */\n      mstore\n        /* \"#utility.yul\":4444:4462   */\n      0x64\n      add\n        /* \"NFTStaking.sol\":4085:4137  require(rewards > 0, \"You have no rewards to claim\") */\n      tag_57\n        /* \"#utility.yul\":4116:4468   */\n      jump\n        /* \"NFTStaking.sol\":4085:4137  require(rewards > 0, \"You have no rewards to claim\") */\n    tag_88:\n        /* \"NFTStaking.sol\":4155:4165  msg.sender */\n      caller\n        /* \"NFTStaking.sol\":4147:4166  stakers[msg.sender] */\n      0x00\n      dup2\n      dup2\n      mstore\n        /* \"NFTStaking.sol\":4147:4154  stakers */\n      0x02\n        /* \"NFTStaking.sol\":4147:4166  stakers[msg.sender] */\n      0x20\n      dup2\n      swap1\n      mstore\n      0x40\n      dup3\n      keccak256\n        /* \"NFTStaking.sol\":4186:4201  block.timestamp */\n      timestamp\n        /* \"NFTStaking.sol\":4147:4183  stakers[msg.sender].timeOfLastUpdate */\n      swap2\n      dup2\n      add\n        /* \"NFTStaking.sol\":4147:4201  stakers[msg.sender].timeOfLastUpdate = block.timestamp */\n      swap2\n      swap1\n      swap2\n      sstore\n        /* \"NFTStaking.sol\":4211:4247  stakers[msg.sender].unclaimedRewards */\n      0x03\n      add\n        /* \"NFTStaking.sol\":4211:4251  stakers[msg.sender].unclaimedRewards = 0 */\n      sstore\n        /* \"NFTStaking.sol\":4262:4308  rewardsToken.safeTransfer(msg.sender, rewards) */\n      tag_83\n      swap1\n        /* \"NFTStaking.sol\":4262:4274  rewardsToken */\n      immutable(\"0x5c4c6aa067b6f8e6cb38e6ab843832a94d1712d661a04d73c517d6a1931a9e5d\")\n      sub(shl(0xa0, 0x01), 0x01)\n        /* \"NFTStaking.sol\":4262:4287  rewardsToken.safeTransfer */\n      and\n      swap1\n        /* \"NFTStaking.sol\":4300:4307  rewards */\n      dup4\n        /* \"NFTStaking.sol\":4262:4287  rewardsToken.safeTransfer */\n      tag_92\n        /* \"NFTStaking.sol\":4262:4308  rewardsToken.safeTransfer(msg.sender, rewards) */\n      jump\t// in\n        /* \"NFTStaking.sol\":4829:5642  function getStakedToken(address _user)... */\n    tag_23:\n      sub(shl(0xa0, 0x01), 0x01)\n        /* \"NFTStaking.sol\":4953:4967  stakers[_user] */\n      dup2\n      and\n        /* \"NFTStaking.sol\":4983:4984  0 */\n      0x00\n        /* \"NFTStaking.sol\":4953:4967  stakers[_user] */\n      swap1\n      dup2\n      mstore\n        /* \"NFTStaking.sol\":4953:4960  stakers */\n      0x02\n        /* \"NFTStaking.sol\":4953:4967  stakers[_user] */\n      0x20\n      mstore\n      0x40\n      swap1\n      keccak256\n        /* \"NFTStaking.sol\":4953:4980  stakers[_user].amountStaked */\n      sload\n        /* \"NFTStaking.sol\":4913:4933  StakedToken[] memory */\n      0x60\n      swap1\n        /* \"NFTStaking.sol\":4953:4984  stakers[_user].amountStaked > 0 */\n      iszero\n        /* \"NFTStaking.sol\":4949:5636  if (stakers[_user].amountStaked > 0) {... */\n      tag_94\n      jumpi\n      sub(shl(0xa0, 0x01), 0x01)\n        /* \"NFTStaking.sol\":5165:5179  stakers[_user] */\n      dup3\n      and\n        /* \"NFTStaking.sol\":5093:5127  StakedToken[] memory _stakedTokens */\n      0x00\n        /* \"NFTStaking.sol\":5165:5179  stakers[_user] */\n      swap1\n      dup2\n      mstore\n        /* \"NFTStaking.sol\":5165:5172  stakers */\n      0x02\n        /* \"NFTStaking.sol\":5165:5179  stakers[_user] */\n      0x20\n      mstore\n      0x40\n      dup2\n      keccak256\n        /* \"NFTStaking.sol\":5165:5192  stakers[_user].amountStaked */\n      sload\n        /* \"NFTStaking.sol\":5130:5206  new StakedToken[](... */\n      0xffffffffffffffff\n      dup2\n      gt\n      iszero\n      tag_96\n      jumpi\n      tag_96\n      tag_97\n      jump\t// in\n    tag_96:\n      mload(0x40)\n      swap1\n      dup1\n      dup3\n      mstore\n      dup1\n      0x20\n      mul\n      0x20\n      add\n      dup3\n      add\n      0x40\n      mstore\n      dup1\n      iszero\n      tag_98\n      jumpi\n      dup2\n      0x20\n      add\n    tag_99:\n      0x40\n      dup1\n      mload\n      dup1\n      dup3\n      add\n      swap1\n      swap2\n      mstore\n      0x00\n      dup1\n      dup3\n      mstore\n      0x20\n      dup3\n      add\n      mstore\n      dup2\n      mstore\n      0x20\n      add\n      swap1\n      0x01\n      swap1\n      sub\n      swap1\n      dup2\n      tag_99\n      jumpi\n      swap1\n      pop\n    tag_98:\n      pop\n        /* \"NFTStaking.sol\":5093:5206  StakedToken[] memory _stakedTokens = new StakedToken[](... */\n      swap1\n      pop\n        /* \"NFTStaking.sol\":5220:5234  uint256 _index */\n      0x00\n        /* \"NFTStaking.sol\":5258:5267  uint256 j */\n      dup1\n        /* \"NFTStaking.sol\":5253:5534  for (uint256 j = 0; j < stakers[_user].stakedTokens.length; j++) {... */\n    tag_102:\n      sub(shl(0xa0, 0x01), 0x01)\n        /* \"NFTStaking.sol\":5277:5291  stakers[_user] */\n      dup6\n      and\n      0x00\n      swap1\n      dup2\n      mstore\n        /* \"NFTStaking.sol\":5277:5284  stakers */\n      0x02\n        /* \"NFTStaking.sol\":5277:5291  stakers[_user] */\n      0x20\n      mstore\n      0x40\n      swap1\n      keccak256\n        /* \"NFTStaking.sol\":5277:5304  stakers[_user].stakedTokens */\n      0x01\n      add\n        /* \"NFTStaking.sol\":5277:5311  stakers[_user].stakedTokens.length */\n      sload\n        /* \"NFTStaking.sol\":5273:5311  j < stakers[_user].stakedTokens.length */\n      dup2\n      lt\n        /* \"NFTStaking.sol\":5253:5534  for (uint256 j = 0; j < stakers[_user].stakedTokens.length; j++) {... */\n      iszero\n      tag_103\n      jumpi\n      sub(shl(0xa0, 0x01), 0x01)\n        /* \"NFTStaking.sol\":5340:5354  stakers[_user] */\n      dup6\n      and\n        /* \"NFTStaking.sol\":5390:5391  0 */\n      0x00\n        /* \"NFTStaking.sol\":5340:5354  stakers[_user] */\n      swap1\n      dup2\n      mstore\n        /* \"NFTStaking.sol\":5340:5347  stakers */\n      0x02\n        /* \"NFTStaking.sol\":5340:5354  stakers[_user] */\n      0x20\n      mstore\n      0x40\n      dup2\n      keccak256\n        /* \"NFTStaking.sol\":5340:5367  stakers[_user].stakedTokens */\n      0x01\n      add\n        /* \"NFTStaking.sol\":5340:5370  stakers[_user].stakedTokens[j] */\n      dup1\n      sload\n        /* \"NFTStaking.sol\":5368:5369  j */\n      dup4\n      swap1\n        /* \"NFTStaking.sol\":5340:5370  stakers[_user].stakedTokens[j] */\n      dup2\n      lt\n      tag_106\n      jumpi\n      tag_106\n      tag_68\n      jump\t// in\n    tag_106:\n      0x00\n      swap2\n      dup3\n      mstore\n      0x20\n      swap1\n      swap2\n      keccak256\n      0x02\n      swap1\n      swap2\n      mul\n      add\n        /* \"NFTStaking.sol\":5340:5377  stakers[_user].stakedTokens[j].staker */\n      sload\n      sub(shl(0xa0, 0x01), 0x01)\n      and\n        /* \"NFTStaking.sol\":5340:5393  stakers[_user].stakedTokens[j].staker != (address(0)) */\n      eq\n        /* \"NFTStaking.sol\":5336:5520  if (stakers[_user].stakedTokens[j].staker != (address(0))) {... */\n      tag_108\n      jumpi\n      sub(shl(0xa0, 0x01), 0x01)\n        /* \"NFTStaking.sol\":5441:5455  stakers[_user] */\n      dup6\n      and\n      0x00\n      swap1\n      dup2\n      mstore\n        /* \"NFTStaking.sol\":5441:5448  stakers */\n      0x02\n        /* \"NFTStaking.sol\":5441:5455  stakers[_user] */\n      0x20\n      mstore\n      0x40\n      swap1\n      keccak256\n        /* \"NFTStaking.sol\":5441:5468  stakers[_user].stakedTokens */\n      0x01\n      add\n        /* \"NFTStaking.sol\":5441:5471  stakers[_user].stakedTokens[j] */\n      dup1\n      sload\n        /* \"NFTStaking.sol\":5469:5470  j */\n      dup3\n      swap1\n        /* \"NFTStaking.sol\":5441:5471  stakers[_user].stakedTokens[j] */\n      dup2\n      lt\n      tag_110\n      jumpi\n      tag_110\n      tag_68\n      jump\t// in\n    tag_110:\n      0x00\n      swap2\n      dup3\n      mstore\n      0x20\n      swap2\n      dup3\n      swap1\n      keccak256\n        /* \"NFTStaking.sol\":5417:5471  _stakedTokens[_index] = stakers[_user].stakedTokens[j] */\n      0x40\n      dup1\n      mload\n      dup1\n      dup3\n      add\n      swap1\n      swap2\n      mstore\n        /* \"NFTStaking.sol\":5441:5471  stakers[_user].stakedTokens[j] */\n      0x02\n      swap1\n      swap3\n      mul\n      add\n        /* \"NFTStaking.sol\":5417:5471  _stakedTokens[_index] = stakers[_user].stakedTokens[j] */\n      dup1\n      sload\n      sub(shl(0xa0, 0x01), 0x01)\n      and\n      dup3\n      mstore\n      0x01\n      add\n      sload\n      swap2\n      dup2\n      add\n      swap2\n      swap1\n      swap2\n      mstore\n        /* \"NFTStaking.sol\":5417:5438  _stakedTokens[_index] */\n      dup4\n      mload\n        /* \"NFTStaking.sol\":5417:5430  _stakedTokens */\n      dup5\n      swap1\n        /* \"NFTStaking.sol\":5431:5437  _index */\n      dup5\n      swap1\n        /* \"NFTStaking.sol\":5417:5438  _stakedTokens[_index] */\n      dup2\n      lt\n      tag_113\n      jumpi\n      tag_113\n      tag_68\n      jump\t// in\n    tag_113:\n      0x20\n      mul\n      0x20\n      add\n      add\n        /* \"NFTStaking.sol\":5417:5471  _stakedTokens[_index] = stakers[_user].stakedTokens[j] */\n      dup2\n      swap1\n      mstore\n      pop\n        /* \"NFTStaking.sol\":5493:5501  _index++ */\n      dup2\n      dup1\n      tag_114\n      swap1\n      tag_72\n      jump\t// in\n    tag_114:\n      swap3\n      pop\n      pop\n        /* \"NFTStaking.sol\":5336:5520  if (stakers[_user].stakedTokens[j].staker != (address(0))) {... */\n    tag_108:\n        /* \"NFTStaking.sol\":5313:5316  j++ */\n      dup1\n      tag_115\n      dup2\n      tag_72\n      jump\t// in\n    tag_115:\n      swap2\n      pop\n      pop\n        /* \"NFTStaking.sol\":5253:5534  for (uint256 j = 0; j < stakers[_user].stakedTokens.length; j++) {... */\n      jump(tag_102)\n    tag_103:\n      pop\n        /* \"NFTStaking.sol\":5554:5567  _stakedTokens */\n      swap1\n      swap4\n        /* \"NFTStaking.sol\":4829:5642  function getStakedToken(address _user)... */\n      swap3\n      pop\n      pop\n      pop\n      jump\t// out\n        /* \"NFTStaking.sol\":4949:5636  if (stakers[_user].amountStaked > 0) {... */\n    tag_94:\n        /* \"NFTStaking.sol\":5605:5625  new StakedToken[](0) */\n      0x40\n      dup1\n      mload\n        /* \"NFTStaking.sol\":5623:5624  0 */\n      0x00\n        /* \"NFTStaking.sol\":5605:5625  new StakedToken[](0) */\n      dup1\n      dup3\n      mstore\n      0x20\n      dup3\n      add\n      swap1\n      swap3\n      mstore\n      swap1\n      jump(tag_119)\n    tag_120:\n      0x40\n      dup1\n      mload\n      dup1\n      dup3\n      add\n      swap1\n      swap2\n      mstore\n      0x00\n      dup1\n      dup3\n      mstore\n      0x20\n      dup3\n      add\n      mstore\n      dup2\n      mstore\n      0x20\n      add\n      swap1\n      0x01\n      swap1\n      sub\n      swap1\n      dup2\n      tag_120\n      jumpi\n      swap1\n      pop\n    tag_119:\n      pop\n        /* \"NFTStaking.sol\":5598:5625  return new StakedToken[](0) */\n      swap3\n        /* \"NFTStaking.sol\":4829:5642  function getStakedToken(address _user)... */\n      swap2\n      pop\n      pop\n      jump\t// out\n        /* \"NFTStaking.sol\":1685:2805  function stake(uint256 _tokenId) external nonReentrant {... */\n    tag_42:\n        /* \"@openzeppelin/contracts/security/ReentrancyGuard.sol\":2261:2282   */\n      tag_123\n        /* \"@openzeppelin/contracts/security/ReentrancyGuard.sol\":2261:2280   */\n      tag_54\n        /* \"@openzeppelin/contracts/security/ReentrancyGuard.sol\":2261:2282   */\n      jump\t// in\n    tag_123:\n        /* \"NFTStaking.sol\":1762:1772  msg.sender */\n      caller\n        /* \"NFTStaking.sol\":1789:1790  0 */\n      0x00\n        /* \"NFTStaking.sol\":1754:1773  stakers[msg.sender] */\n      swap1\n      dup2\n      mstore\n        /* \"NFTStaking.sol\":1754:1761  stakers */\n      0x02\n        /* \"NFTStaking.sol\":1754:1773  stakers[msg.sender] */\n      0x20\n      mstore\n      0x40\n      swap1\n      keccak256\n        /* \"NFTStaking.sol\":1754:1786  stakers[msg.sender].amountStaked */\n      sload\n        /* \"NFTStaking.sol\":1754:1790  stakers[msg.sender].amountStaked > 0 */\n      iszero\n        /* \"NFTStaking.sol\":1750:1924  if (stakers[msg.sender].amountStaked > 0) {... */\n      tag_125\n      jumpi\n        /* \"NFTStaking.sol\":1806:1821  uint256 rewards */\n      0x00\n        /* \"NFTStaking.sol\":1824:1852  calculateRewards(msg.sender) */\n      tag_126\n        /* \"NFTStaking.sol\":1841:1851  msg.sender */\n      caller\n        /* \"NFTStaking.sol\":1824:1840  calculateRewards */\n      tag_60\n        /* \"NFTStaking.sol\":1824:1852  calculateRewards(msg.sender) */\n      jump\t// in\n    tag_126:\n        /* \"NFTStaking.sol\":1874:1884  msg.sender */\n      caller\n        /* \"NFTStaking.sol\":1866:1885  stakers[msg.sender] */\n      0x00\n      swap1\n      dup2\n      mstore\n        /* \"NFTStaking.sol\":1866:1873  stakers */\n      0x02\n        /* \"NFTStaking.sol\":1866:1885  stakers[msg.sender] */\n      0x20\n      mstore\n      0x40\n      dup2\n      keccak256\n        /* \"NFTStaking.sol\":1866:1902  stakers[msg.sender].unclaimedRewards */\n      0x03\n      add\n        /* \"NFTStaking.sol\":1866:1913  stakers[msg.sender].unclaimedRewards += rewards */\n      dup1\n      sload\n        /* \"NFTStaking.sol\":1806:1852  uint256 rewards = calculateRewards(msg.sender) */\n      swap3\n      swap4\n      pop\n      dup4\n      swap3\n        /* \"NFTStaking.sol\":1866:1902  stakers[msg.sender].unclaimedRewards */\n      swap1\n      swap2\n        /* \"NFTStaking.sol\":1866:1885  stakers[msg.sender] */\n      swap1\n        /* \"NFTStaking.sol\":1866:1913  stakers[msg.sender].unclaimedRewards += rewards */\n      tag_127\n      swap1\n        /* \"NFTStaking.sol\":1806:1852  uint256 rewards = calculateRewards(msg.sender) */\n      dup5\n      swap1\n        /* \"NFTStaking.sol\":1866:1913  stakers[msg.sender].unclaimedRewards += rewards */\n      tag_62\n      jump\t// in\n    tag_127:\n      swap1\n      swap2\n      sstore\n      pop\n      pop\n      pop\n        /* \"NFTStaking.sol\":1750:1924  if (stakers[msg.sender].amountStaked > 0) {... */\n    tag_125:\n        /* \"NFTStaking.sol\":2017:2048  nftCollection.ownerOf(_tokenId) */\n      mload(0x40)\n      shl(0xe1, 0x31a9108f)\n      dup2\n      mstore\n      0x04\n      dup2\n      add\n        /* \"#utility.yul\":2649:2674   */\n      dup3\n      swap1\n      mstore\n        /* \"NFTStaking.sol\":2052:2062  msg.sender */\n      caller\n      swap1\n      sub(shl(0xa0, 0x01), 0x01)\n        /* \"NFTStaking.sol\":2017:2030  nftCollection */\n      immutable(\"0x8e8fab5f003314da8d1873ea7720e8d9f47650136d916064d1edb8a11d682624\")\n        /* \"NFTStaking.sol\":2017:2038  nftCollection.ownerOf */\n      and\n      swap1\n      0x6352211e\n      swap1\n        /* \"#utility.yul\":2622:2640   */\n      0x24\n      add\n        /* \"NFTStaking.sol\":2017:2048  nftCollection.ownerOf(_tokenId) */\n      0x20\n      mload(0x40)\n      dup1\n      dup4\n      sub\n      dup2\n      dup7\n      gas\n      staticcall\n      iszero\n      dup1\n      iszero\n      tag_130\n      jumpi\n      returndatasize\n      0x00\n      dup1\n      returndatacopy\n      revert(0x00, returndatasize)\n    tag_130:\n      pop\n      pop\n      pop\n      pop\n      mload(0x40)\n      returndatasize\n      not(0x1f)\n      0x1f\n      dup3\n      add\n      and\n      dup3\n      add\n      dup1\n      0x40\n      mstore\n      pop\n      dup2\n      add\n      swap1\n      tag_131\n      swap2\n      swap1\n      tag_132\n      jump\t// in\n    tag_131:\n      sub(shl(0xa0, 0x01), 0x01)\n        /* \"NFTStaking.sol\":2017:2062  nftCollection.ownerOf(_tokenId) == msg.sender */\n      and\n      eq\n        /* \"NFTStaking.sol\":1996:2114  require(... */\n      tag_133\n      jumpi\n      mload(0x40)\n      shl(0xe5, 0x461bcd)\n      dup2\n      mstore\n        /* \"#utility.yul\":5063:5065   */\n      0x20\n        /* \"NFTStaking.sol\":1996:2114  require(... */\n      0x04\n      dup3\n      add\n        /* \"#utility.yul\":5045:5066   */\n      mstore\n        /* \"#utility.yul\":5102:5104   */\n      0x1a\n        /* \"#utility.yul\":5082:5100   */\n      0x24\n      dup3\n      add\n        /* \"#utility.yul\":5075:5105   */\n      mstore\n        /* \"#utility.yul\":5141:5169   */\n      0x596f7520646f206e6f74206f776e207468697320746f6b656e21000000000000\n        /* \"#utility.yul\":5121:5139   */\n      0x44\n      dup3\n      add\n        /* \"#utility.yul\":5114:5170   */\n      mstore\n        /* \"#utility.yul\":5187:5205   */\n      0x64\n      add\n        /* \"NFTStaking.sol\":1996:2114  require(... */\n      tag_57\n        /* \"#utility.yul\":4861:5211   */\n      jump\n        /* \"NFTStaking.sol\":1996:2114  require(... */\n    tag_133:\n        /* \"NFTStaking.sol\":2181:2244  nftCollection.transferFrom(msg.sender, address(this), _tokenId) */\n      mload(0x40)\n      shl(0xe0, 0x23b872dd)\n      dup2\n      mstore\n        /* \"NFTStaking.sol\":2208:2218  msg.sender */\n      caller\n        /* \"NFTStaking.sol\":2181:2244  nftCollection.transferFrom(msg.sender, address(this), _tokenId) */\n      0x04\n      dup3\n      add\n        /* \"#utility.yul\":3976:4010   */\n      mstore\n        /* \"NFTStaking.sol\":2228:2232  this */\n      address\n        /* \"#utility.yul\":4026:4044   */\n      0x24\n      dup3\n      add\n        /* \"#utility.yul\":4019:4062   */\n      mstore\n        /* \"#utility.yul\":4078:4096   */\n      0x44\n      dup2\n      add\n        /* \"#utility.yul\":4071:4105   */\n      dup3\n      swap1\n      mstore\n        /* \"NFTStaking.sol\":2181:2194  nftCollection */\n      immutable(\"0x8e8fab5f003314da8d1873ea7720e8d9f47650136d916064d1edb8a11d682624\")\n      sub(shl(0xa0, 0x01), 0x01)\n        /* \"NFTStaking.sol\":2181:2207  nftCollection.transferFrom */\n      and\n      swap1\n      0x23b872dd\n      swap1\n        /* \"#utility.yul\":3888:3906   */\n      0x64\n      add\n        /* \"NFTStaking.sol\":2181:2244  nftCollection.transferFrom(msg.sender, address(this), _tokenId) */\n      0x00\n      mload(0x40)\n      dup1\n      dup4\n      sub\n      dup2\n      0x00\n      dup8\n      dup1\n      extcodesize\n      iszero\n      dup1\n      iszero\n      tag_137\n      jumpi\n      0x00\n      dup1\n      revert\n    tag_137:\n      pop\n      gas\n      call\n      iszero\n      dup1\n      iszero\n      tag_139\n      jumpi\n      returndatasize\n      0x00\n      dup1\n      returndatacopy\n      revert(0x00, returndatasize)\n    tag_139:\n      pop\n      pop\n        /* \"NFTStaking.sol\":2318:2351  StakedToken(msg.sender, _tokenId) */\n      0x40\n      dup1\n      mload\n      dup1\n      dup3\n      add\n      dup3\n      mstore\n        /* \"NFTStaking.sol\":2330:2340  msg.sender */\n      caller\n        /* \"NFTStaking.sol\":2318:2351  StakedToken(msg.sender, _tokenId) */\n      dup1\n      dup3\n      mstore\n      0x20\n      dup1\n      dup4\n      add\n      dup8\n      dup2\n      mstore\n      0x00\n        /* \"NFTStaking.sol\":2413:2432  stakers[msg.sender] */\n      dup4\n      dup2\n      mstore\n        /* \"NFTStaking.sol\":2413:2420  stakers */\n      0x02\n        /* \"NFTStaking.sol\":2413:2432  stakers[msg.sender] */\n      dup1\n      dup5\n      mstore\n      swap6\n      dup2\n      keccak256\n        /* \"NFTStaking.sol\":2413:2445  stakers[msg.sender].stakedTokens */\n      0x01\n      dup1\n      dup3\n      add\n        /* \"NFTStaking.sol\":2413:2463  stakers[msg.sender].stakedTokens.push(stakedToken) */\n      dup1\n      sload\n      dup1\n      dup4\n      add\n      dup3\n      sstore\n      swap1\n      dup5\n      mstore\n      swap5\n      dup4\n      keccak256\n      dup8\n      mload\n      swap6\n      swap1\n      swap9\n      mul\n      swap1\n      swap8\n      add\n      dup1\n      sload\n      not(sub(shl(0xa0, 0x01), 0x01))\n      and\n      sub(shl(0xa0, 0x01), 0x01)\n      swap1\n      swap6\n      and\n      swap5\n      swap1\n      swap5\n      or\n      dup5\n      sstore\n      swap2\n      mload\n      swap3\n      swap1\n      swap6\n      add\n      swap2\n      swap1\n      swap2\n      sstore\n        /* \"NFTStaking.sol\":2529:2548  stakers[msg.sender] */\n      swap1\n      dup4\n      mstore\n        /* \"NFTStaking.sol\":2529:2563  stakers[msg.sender].amountStaked++ */\n      dup1\n      sload\n        /* \"NFTStaking.sol\":2318:2351  StakedToken(msg.sender, _tokenId) */\n      swap2\n      swap5\n      pop\n        /* \"NFTStaking.sol\":2529:2563  stakers[msg.sender].amountStaked++ */\n      swap1\n      swap3\n      pop\n        /* \"NFTStaking.sol\":2413:2432  stakers[msg.sender] */\n      swap1\n        /* \"NFTStaking.sol\":2529:2563  stakers[msg.sender].amountStaked++ */\n      tag_141\n      dup4\n      tag_72\n      jump\t// in\n    tag_141:\n      swap1\n      swap2\n      sstore\n      pop\n      pop\n      pop\n        /* \"NFTStaking.sol\":2643:2666  stakerAddress[_tokenId] */\n      0x00\n      dup2\n      dup2\n      mstore\n        /* \"NFTStaking.sol\":2643:2656  stakerAddress */\n      0x03\n        /* \"NFTStaking.sol\":2643:2666  stakerAddress[_tokenId] */\n      0x20\n      swap1\n      dup2\n      mstore\n      0x40\n      dup1\n      dup4\n      keccak256\n        /* \"NFTStaking.sol\":2643:2679  stakerAddress[_tokenId] = msg.sender */\n      dup1\n      sload\n      not(sub(shl(0xa0, 0x01), 0x01))\n      and\n        /* \"NFTStaking.sol\":2669:2679  msg.sender */\n      caller\n        /* \"NFTStaking.sol\":2643:2679  stakerAddress[_tokenId] = msg.sender */\n      swap1\n      dup2\n      or\n      swap1\n      swap2\n      sstore\n        /* \"NFTStaking.sol\":2744:2763  stakers[msg.sender] */\n      dup4\n      mstore\n        /* \"NFTStaking.sol\":2744:2751  stakers */\n      0x02\n        /* \"NFTStaking.sol\":2744:2763  stakers[msg.sender] */\n      swap2\n      dup3\n      swap1\n      mstore\n      swap1\n      swap2\n      keccak256\n        /* \"NFTStaking.sol\":2783:2798  block.timestamp */\n      timestamp\n        /* \"NFTStaking.sol\":2744:2780  stakers[msg.sender].timeOfLastUpdate */\n      swap2\n      add\n        /* \"NFTStaking.sol\":2744:2798  stakers[msg.sender].timeOfLastUpdate = block.timestamp */\n      sstore\n        /* \"@openzeppelin/contracts/security/ReentrancyGuard.sol\":2303:2323   */\n      tag_83\n        /* \"@openzeppelin/contracts/security/ReentrancyGuard.sol\":1716:1717   */\n      0x01\n        /* \"@openzeppelin/contracts/security/ReentrancyGuard.sol\":2809:2816   */\n      0x00\n        /* \"@openzeppelin/contracts/security/ReentrancyGuard.sol\":2809:2831   */\n      sstore\n        /* \"@openzeppelin/contracts/security/ReentrancyGuard.sol\":2629:2838   */\n      jump\n        /* \"NFTStaking.sol\":4618:4823  function availableRewards(address _staker) public view returns (uint256) {... */\n    tag_49:\n      sub(shl(0xa0, 0x01), 0x01)\n        /* \"NFTStaking.sol\":4759:4775  stakers[_staker] */\n      dup2\n      and\n        /* \"NFTStaking.sol\":4682:4689  uint256 */\n      0x00\n        /* \"NFTStaking.sol\":4759:4775  stakers[_staker] */\n      swap1\n      dup2\n      mstore\n        /* \"NFTStaking.sol\":4759:4766  stakers */\n      0x02\n        /* \"NFTStaking.sol\":4759:4775  stakers[_staker] */\n      0x20\n      mstore\n      0x40\n      dup2\n      keccak256\n        /* \"NFTStaking.sol\":4759:4792  stakers[_staker].unclaimedRewards */\n      0x03\n      add\n      sload\n        /* \"NFTStaking.sol\":4682:4689  uint256 */\n      dup2\n      swap1\n        /* \"NFTStaking.sol\":4719:4744  calculateRewards(_staker) */\n      tag_144\n        /* \"NFTStaking.sol\":4767:4774  _staker */\n      dup5\n        /* \"NFTStaking.sol\":4719:4735  calculateRewards */\n      tag_60\n        /* \"NFTStaking.sol\":4719:4744  calculateRewards(_staker) */\n      jump\t// in\n    tag_144:\n        /* \"NFTStaking.sol\":4719:4792  calculateRewards(_staker) +... */\n      tag_145\n      swap2\n      swap1\n      tag_62\n      jump\t// in\n    tag_145:\n        /* \"NFTStaking.sol\":4701:4792  uint256 rewards = calculateRewards(_staker) +... */\n      swap4\n        /* \"NFTStaking.sol\":4618:4823  function availableRewards(address _staker) public view returns (uint256) {... */\n      swap3\n      pop\n      pop\n      pop\n      jump\t// out\n        /* \"@openzeppelin/contracts/security/ReentrancyGuard.sol\":2336:2623   */\n    tag_54:\n        /* \"@openzeppelin/contracts/security/ReentrancyGuard.sol\":1759:1760   */\n      0x02\n        /* \"@openzeppelin/contracts/security/ReentrancyGuard.sol\":2468:2475   */\n      sload(0x00)\n        /* \"@openzeppelin/contracts/security/ReentrancyGuard.sol\":2468:2487   */\n      sub\n        /* \"@openzeppelin/contracts/security/ReentrancyGuard.sol\":2460:2523   */\n      tag_147\n      jumpi\n      mload(0x40)\n      shl(0xe5, 0x461bcd)\n      dup2\n      mstore\n        /* \"#utility.yul\":5418:5420   */\n      0x20\n        /* \"@openzeppelin/contracts/security/ReentrancyGuard.sol\":2460:2523   */\n      0x04\n      dup3\n      add\n        /* \"#utility.yul\":5400:5421   */\n      mstore\n        /* \"#utility.yul\":5457:5459   */\n      0x1f\n        /* \"#utility.yul\":5437:5455   */\n      0x24\n      dup3\n      add\n        /* \"#utility.yul\":5430:5460   */\n      mstore\n        /* \"#utility.yul\":5496:5529   */\n      0x5265656e7472616e637947756172643a207265656e7472616e742063616c6c00\n        /* \"#utility.yul\":5476:5494   */\n      0x44\n      dup3\n      add\n        /* \"#utility.yul\":5469:5530   */\n      mstore\n        /* \"#utility.yul\":5547:5565   */\n      0x64\n      add\n        /* \"@openzeppelin/contracts/security/ReentrancyGuard.sol\":2460:2523   */\n      tag_57\n        /* \"#utility.yul\":5216:5571   */\n      jump\n        /* \"@openzeppelin/contracts/security/ReentrancyGuard.sol\":2460:2523   */\n    tag_147:\n        /* \"@openzeppelin/contracts/security/ReentrancyGuard.sol\":1759:1760   */\n      0x02\n        /* \"@openzeppelin/contracts/security/ReentrancyGuard.sol\":2598:2605   */\n      0x00\n        /* \"@openzeppelin/contracts/security/ReentrancyGuard.sol\":2598:2616   */\n      sstore\n        /* \"@openzeppelin/contracts/security/ReentrancyGuard.sol\":2336:2623   */\n      jump\t// out\n        /* \"NFTStaking.sol\":4321:4612  function calculateRewards(address _staker)... */\n    tag_60:\n        /* \"NFTStaking.sol\":4582:4596  rewardsPerHour */\n      sload(0x01)\n      sub(shl(0xa0, 0x01), 0x01)\n        /* \"NFTStaking.sol\":4539:4555  stakers[_staker] */\n      dup3\n      and\n        /* \"NFTStaking.sol\":4411:4427  uint256 _rewards */\n      0x00\n        /* \"NFTStaking.sol\":4539:4555  stakers[_staker] */\n      swap1\n      dup2\n      mstore\n        /* \"NFTStaking.sol\":4539:4546  stakers */\n      0x02\n        /* \"NFTStaking.sol\":4539:4555  stakers[_staker] */\n      0x20\n      dup2\n      swap1\n      mstore\n      0x40\n      dup3\n      keccak256\n        /* \"NFTStaking.sol\":4539:4568  stakers[_staker].amountStaked */\n      dup1\n      sload\n        /* \"NFTStaking.sol\":4486:4519  stakers[_staker].timeOfLastUpdate */\n      swap2\n      add\n      sload\n        /* \"NFTStaking.sol\":4411:4427  uint256 _rewards */\n      swap2\n      swap3\n        /* \"NFTStaking.sol\":4600:4604  3600 */\n      0x0e10\n      swap3\n        /* \"NFTStaking.sol\":4582:4596  rewardsPerHour */\n      swap1\n      swap2\n        /* \"NFTStaking.sol\":4539:4568  stakers[_staker].amountStaked */\n      swap1\n        /* \"NFTStaking.sol\":4468:4519  block.timestamp - stakers[_staker].timeOfLastUpdate */\n      tag_151\n      swap1\n        /* \"NFTStaking.sol\":4468:4483  block.timestamp */\n      timestamp\n        /* \"NFTStaking.sol\":4468:4519  block.timestamp - stakers[_staker].timeOfLastUpdate */\n      tag_152\n      jump\t// in\n    tag_151:\n        /* \"NFTStaking.sol\":4467:4568  (block.timestamp - stakers[_staker].timeOfLastUpdate) *... */\n      tag_153\n      swap2\n      swap1\n      tag_154\n      jump\t// in\n    tag_153:\n        /* \"NFTStaking.sol\":4452:4596  (... */\n      tag_155\n      swap2\n      swap1\n      tag_154\n      jump\t// in\n    tag_155:\n        /* \"NFTStaking.sol\":4451:4604  ((... */\n      tag_156\n      swap2\n      swap1\n      tag_157\n      jump\t// in\n    tag_156:\n        /* \"NFTStaking.sol\":4443:4605  return (((... */\n      swap3\n        /* \"NFTStaking.sol\":4321:4612  function calculateRewards(address _staker)... */\n      swap2\n      pop\n      pop\n      jump\t// out\n        /* \"@openzeppelin/contracts/security/ReentrancyGuard.sol\":2629:2838   */\n    tag_84:\n        /* \"@openzeppelin/contracts/security/ReentrancyGuard.sol\":1716:1717   */\n      0x01\n        /* \"@openzeppelin/contracts/security/ReentrancyGuard.sol\":2809:2816   */\n      0x00\n        /* \"@openzeppelin/contracts/security/ReentrancyGuard.sol\":2809:2831   */\n      sstore\n        /* \"@openzeppelin/contracts/security/ReentrancyGuard.sol\":2629:2838   */\n      jump\t// out\n        /* \"@openzeppelin/contracts/token/ERC20/utils/safeERC20.sol\":763:968   */\n    tag_92:\n        /* \"@openzeppelin/contracts/token/ERC20/utils/safeERC20.sol\":902:960   */\n      0x40\n      dup1\n      mload\n      sub(shl(0xa0, 0x01), 0x01)\n        /* \"#utility.yul\":6296:6351   */\n      dup5\n      and\n        /* \"@openzeppelin/contracts/token/ERC20/utils/safeERC20.sol\":902:960   */\n      0x24\n      dup3\n      add\n        /* \"#utility.yul\":6278:6352   */\n      mstore\n        /* \"#utility.yul\":6368:6386   */\n      0x44\n      dup1\n      dup3\n      add\n        /* \"#utility.yul\":6361:6395   */\n      dup5\n      swap1\n      mstore\n        /* \"@openzeppelin/contracts/token/ERC20/utils/safeERC20.sol\":902:960   */\n      dup3\n      mload\n      dup1\n      dup4\n      sub\n      swap1\n      swap2\n      add\n      dup2\n      mstore\n        /* \"#utility.yul\":6251:6269   */\n      0x64\n      swap1\n      swap2\n      add\n        /* \"@openzeppelin/contracts/token/ERC20/utils/safeERC20.sol\":902:960   */\n      swap1\n      swap2\n      mstore\n      0x20\n      dup2\n      add\n      dup1\n      mload\n      0xffffffffffffffffffffffffffffffffffffffffffffffffffffffff\n      and\n      shl(0xe0, 0xa9059cbb)\n      or\n      swap1\n      mstore\n        /* \"@openzeppelin/contracts/token/ERC20/utils/safeERC20.sol\":875:961   */\n      tag_160\n      swap1\n        /* \"@openzeppelin/contracts/token/ERC20/utils/safeERC20.sol\":895:900   */\n      dup5\n      swap1\n        /* \"@openzeppelin/contracts/token/ERC20/utils/safeERC20.sol\":875:894   */\n      tag_163\n        /* \"@openzeppelin/contracts/token/ERC20/utils/safeERC20.sol\":875:961   */\n      jump\t// in\n    tag_160:\n        /* \"@openzeppelin/contracts/token/ERC20/utils/safeERC20.sol\":763:968   */\n      pop\n      pop\n      pop\n      jump\t// out\n        /* \"@openzeppelin/contracts/token/ERC20/utils/safeERC20.sol\":3747:4453   */\n    tag_163:\n        /* \"@openzeppelin/contracts/token/ERC20/utils/safeERC20.sol\":4166:4189   */\n      0x00\n        /* \"@openzeppelin/contracts/token/ERC20/utils/safeERC20.sol\":4192:4261   */\n      tag_165\n        /* \"@openzeppelin/contracts/token/ERC20/utils/safeERC20.sol\":4220:4224   */\n      dup3\n        /* \"@openzeppelin/contracts/token/ERC20/utils/safeERC20.sol\":4192:4261   */\n      mload(0x40)\n      dup1\n      0x40\n      add\n      0x40\n      mstore\n      dup1\n      0x20\n      dup2\n      mstore\n      0x20\n      add\n      0x5361666545524332303a206c6f772d6c6576656c2063616c6c206661696c6564\n      dup2\n      mstore\n      pop\n        /* \"@openzeppelin/contracts/token/ERC20/utils/safeERC20.sol\":4200:4205   */\n      dup6\n      sub(shl(0xa0, 0x01), 0x01)\n        /* \"@openzeppelin/contracts/token/ERC20/utils/safeERC20.sol\":4192:4219   */\n      and\n      tag_166\n      swap1\n        /* \"@openzeppelin/contracts/token/ERC20/utils/safeERC20.sol\":4192:4261   */\n      swap3\n      swap2\n      swap1\n      0xffffffff\n      and\n      jump\t// in\n    tag_165:\n        /* \"@openzeppelin/contracts/token/ERC20/utils/safeERC20.sol\":4275:4292   */\n      dup1\n      mload\n        /* \"@openzeppelin/contracts/token/ERC20/utils/safeERC20.sol\":4166:4261   */\n      swap1\n      swap2\n      pop\n        /* \"@openzeppelin/contracts/token/ERC20/utils/safeERC20.sol\":4275:4296   */\n      iszero\n        /* \"@openzeppelin/contracts/token/ERC20/utils/safeERC20.sol\":4271:4447   */\n      tag_160\n      jumpi\n        /* \"@openzeppelin/contracts/token/ERC20/utils/safeERC20.sol\":4370:4380   */\n      dup1\n        /* \"@openzeppelin/contracts/token/ERC20/utils/safeERC20.sol\":4359:4389   */\n      dup1\n      0x20\n      add\n      swap1\n      mload\n      dup2\n      add\n      swap1\n      tag_168\n      swap2\n      swap1\n      tag_169\n      jump\t// in\n    tag_168:\n        /* \"@openzeppelin/contracts/token/ERC20/utils/safeERC20.sol\":4351:4436   */\n      tag_160\n      jumpi\n      mload(0x40)\n      shl(0xe5, 0x461bcd)\n      dup2\n      mstore\n        /* \"#utility.yul\":6890:6892   */\n      0x20\n        /* \"@openzeppelin/contracts/token/ERC20/utils/safeERC20.sol\":4351:4436   */\n      0x04\n      dup3\n      add\n        /* \"#utility.yul\":6872:6893   */\n      mstore\n        /* \"#utility.yul\":6929:6931   */\n      0x2a\n        /* \"#utility.yul\":6909:6927   */\n      0x24\n      dup3\n      add\n        /* \"#utility.yul\":6902:6932   */\n      mstore\n        /* \"#utility.yul\":6968:7002   */\n      0x5361666545524332303a204552433230206f7065726174696f6e20646964206e\n        /* \"#utility.yul\":6948:6966   */\n      0x44\n      dup3\n      add\n        /* \"#utility.yul\":6941:7003   */\n      mstore\n        /* \"#utility.yul\":7039:7051   */\n      0x6f74207375636365656400000000000000000000000000000000000000000000\n        /* \"#utility.yul\":7019:7037   */\n      0x64\n      dup3\n      add\n        /* \"#utility.yul\":7012:7052   */\n      mstore\n        /* \"#utility.yul\":7069:7088   */\n      0x84\n      add\n        /* \"@openzeppelin/contracts/token/ERC20/utils/safeERC20.sol\":4351:4436   */\n      tag_57\n        /* \"#utility.yul\":6688:7094   */\n      jump\n        /* \"@openzeppelin/contracts/utils/Address.sol\":3873:4096   */\n    tag_166:\n        /* \"@openzeppelin/contracts/utils/Address.sol\":4006:4018   */\n      0x60\n        /* \"@openzeppelin/contracts/utils/Address.sol\":4037:4089   */\n      tag_174\n        /* \"@openzeppelin/contracts/utils/Address.sol\":4059:4065   */\n      dup5\n        /* \"@openzeppelin/contracts/utils/Address.sol\":4067:4071   */\n      dup5\n        /* \"@openzeppelin/contracts/utils/Address.sol\":4073:4074   */\n      0x00\n        /* \"@openzeppelin/contracts/utils/Address.sol\":4076:4088   */\n      dup6\n        /* \"@openzeppelin/contracts/utils/Address.sol\":4037:4058   */\n      tag_175\n        /* \"@openzeppelin/contracts/utils/Address.sol\":4037:4089   */\n      jump\t// in\n    tag_174:\n        /* \"@openzeppelin/contracts/utils/Address.sol\":4030:4089   */\n      swap5\n        /* \"@openzeppelin/contracts/utils/Address.sol\":3873:4096   */\n      swap4\n      pop\n      pop\n      pop\n      pop\n      jump\t// out\n        /* \"@openzeppelin/contracts/utils/Address.sol\":4960:5406   */\n    tag_175:\n        /* \"@openzeppelin/contracts/utils/Address.sol\":5125:5137   */\n      0x60\n        /* \"@openzeppelin/contracts/utils/Address.sol\":5182:5187   */\n      dup3\n        /* \"@openzeppelin/contracts/utils/Address.sol\":5157:5178   */\n      selfbalance\n        /* \"@openzeppelin/contracts/utils/Address.sol\":5157:5187   */\n      lt\n      iszero\n        /* \"@openzeppelin/contracts/utils/Address.sol\":5149:5230   */\n      tag_177\n      jumpi\n      mload(0x40)\n      shl(0xe5, 0x461bcd)\n      dup2\n      mstore\n        /* \"#utility.yul\":7301:7303   */\n      0x20\n        /* \"@openzeppelin/contracts/utils/Address.sol\":5149:5230   */\n      0x04\n      dup3\n      add\n        /* \"#utility.yul\":7283:7304   */\n      mstore\n        /* \"#utility.yul\":7340:7342   */\n      0x26\n        /* \"#utility.yul\":7320:7338   */\n      0x24\n      dup3\n      add\n        /* \"#utility.yul\":7313:7343   */\n      mstore\n        /* \"#utility.yul\":7379:7413   */\n      0x416464726573733a20696e73756666696369656e742062616c616e636520666f\n        /* \"#utility.yul\":7359:7377   */\n      0x44\n      dup3\n      add\n        /* \"#utility.yul\":7352:7414   */\n      mstore\n        /* \"#utility.yul\":7450:7458   */\n      0x722063616c6c0000000000000000000000000000000000000000000000000000\n        /* \"#utility.yul\":7430:7448   */\n      0x64\n      dup3\n      add\n        /* \"#utility.yul\":7423:7459   */\n      mstore\n        /* \"#utility.yul\":7476:7495   */\n      0x84\n      add\n        /* \"@openzeppelin/contracts/utils/Address.sol\":5149:5230   */\n      tag_57\n        /* \"#utility.yul\":7099:7501   */\n      jump\n        /* \"@openzeppelin/contracts/utils/Address.sol\":5149:5230   */\n    tag_177:\n        /* \"@openzeppelin/contracts/utils/Address.sol\":5241:5253   */\n      0x00\n        /* \"@openzeppelin/contracts/utils/Address.sol\":5255:5278   */\n      dup1\n        /* \"@openzeppelin/contracts/utils/Address.sol\":5282:5288   */\n      dup7\n      sub(shl(0xa0, 0x01), 0x01)\n        /* \"@openzeppelin/contracts/utils/Address.sol\":5282:5293   */\n      and\n        /* \"@openzeppelin/contracts/utils/Address.sol\":5301:5306   */\n      dup6\n        /* \"@openzeppelin/contracts/utils/Address.sol\":5308:5312   */\n      dup8\n        /* \"@openzeppelin/contracts/utils/Address.sol\":5282:5313   */\n      mload(0x40)\n      tag_180\n      swap2\n      swap1\n      tag_181\n      jump\t// in\n    tag_180:\n      0x00\n      mload(0x40)\n      dup1\n      dup4\n      sub\n      dup2\n      dup6\n      dup8\n      gas\n      call\n      swap3\n      pop\n      pop\n      pop\n      returndatasize\n      dup1\n      0x00\n      dup2\n      eq\n      tag_184\n      jumpi\n      mload(0x40)\n      swap2\n      pop\n      and(add(returndatasize, 0x3f), not(0x1f))\n      dup3\n      add\n      0x40\n      mstore\n      returndatasize\n      dup3\n      mstore\n      returndatasize\n      0x00\n      0x20\n      dup5\n      add\n      returndatacopy\n      jump(tag_183)\n    tag_184:\n      0x60\n      swap2\n      pop\n    tag_183:\n      pop\n        /* \"@openzeppelin/contracts/utils/Address.sol\":5240:5313   */\n      swap2\n      pop\n      swap2\n      pop\n        /* \"@openzeppelin/contracts/utils/Address.sol\":5330:5399   */\n      tag_185\n        /* \"@openzeppelin/contracts/utils/Address.sol\":5357:5363   */\n      dup8\n        /* \"@openzeppelin/contracts/utils/Address.sol\":5365:5372   */\n      dup4\n        /* \"@openzeppelin/contracts/utils/Address.sol\":5374:5384   */\n      dup4\n        /* \"@openzeppelin/contracts/utils/Address.sol\":5386:5398   */\n      dup8\n        /* \"@openzeppelin/contracts/utils/Address.sol\":5330:5356   */\n      tag_186\n        /* \"@openzeppelin/contracts/utils/Address.sol\":5330:5399   */\n      jump\t// in\n    tag_185:\n        /* \"@openzeppelin/contracts/utils/Address.sol\":5323:5399   */\n      swap8\n        /* \"@openzeppelin/contracts/utils/Address.sol\":4960:5406   */\n      swap7\n      pop\n      pop\n      pop\n      pop\n      pop\n      pop\n      pop\n      jump\t// out\n        /* \"@openzeppelin/contracts/utils/Address.sol\":7466:8094   */\n    tag_186:\n        /* \"@openzeppelin/contracts/utils/Address.sol\":7646:7658   */\n      0x60\n        /* \"@openzeppelin/contracts/utils/Address.sol\":7674:7681   */\n      dup4\n        /* \"@openzeppelin/contracts/utils/Address.sol\":7670:8088   */\n      iszero\n      tag_188\n      jumpi\n        /* \"@openzeppelin/contracts/utils/Address.sol\":7701:7711   */\n      dup3\n        /* \"@openzeppelin/contracts/utils/Address.sol\":7701:7718   */\n      mload\n        /* \"@openzeppelin/contracts/utils/Address.sol\":7722:7723   */\n      0x00\n        /* \"@openzeppelin/contracts/utils/Address.sol\":7701:7723   */\n      sub\n        /* \"@openzeppelin/contracts/utils/Address.sol\":7697:7983   */\n      tag_192\n      jumpi\n      sub(shl(0xa0, 0x01), 0x01)\n        /* \"@openzeppelin/contracts/utils/Address.sol\":1465:1484   */\n      dup6\n      and\n      extcodesize\n        /* \"@openzeppelin/contracts/utils/Address.sol\":7908:7968   */\n      tag_192\n      jumpi\n      mload(0x40)\n      shl(0xe5, 0x461bcd)\n      dup2\n      mstore\n        /* \"#utility.yul\":8255:8257   */\n      0x20\n        /* \"@openzeppelin/contracts/utils/Address.sol\":7908:7968   */\n      0x04\n      dup3\n      add\n        /* \"#utility.yul\":8237:8258   */\n      mstore\n        /* \"#utility.yul\":8294:8296   */\n      0x1d\n        /* \"#utility.yul\":8274:8292   */\n      0x24\n      dup3\n      add\n        /* \"#utility.yul\":8267:8297   */\n      mstore\n        /* \"#utility.yul\":8333:8364   */\n      0x416464726573733a2063616c6c20746f206e6f6e2d636f6e7472616374000000\n        /* \"#utility.yul\":8313:8331   */\n      0x44\n      dup3\n      add\n        /* \"#utility.yul\":8306:8365   */\n      mstore\n        /* \"#utility.yul\":8382:8400   */\n      0x64\n      add\n        /* \"@openzeppelin/contracts/utils/Address.sol\":7908:7968   */\n      tag_57\n        /* \"#utility.yul\":8053:8406   */\n      jump\n        /* \"@openzeppelin/contracts/utils/Address.sol\":7908:7968   */\n    tag_192:\n      pop\n        /* \"@openzeppelin/contracts/utils/Address.sol\":8003:8013   */\n      dup2\n        /* \"@openzeppelin/contracts/utils/Address.sol\":7996:8013   */\n      jump(tag_174)\n        /* \"@openzeppelin/contracts/utils/Address.sol\":7670:8088   */\n    tag_188:\n        /* \"@openzeppelin/contracts/utils/Address.sol\":8044:8077   */\n      tag_174\n        /* \"@openzeppelin/contracts/utils/Address.sol\":8052:8062   */\n      dup4\n        /* \"@openzeppelin/contracts/utils/Address.sol\":8064:8076   */\n      dup4\n        /* \"@openzeppelin/contracts/utils/Address.sol\":8775:8792   */\n      dup2\n      mload\n        /* \"@openzeppelin/contracts/utils/Address.sol\":8775:8796   */\n      iszero\n        /* \"@openzeppelin/contracts/utils/Address.sol\":8771:9150   */\n      tag_200\n      jumpi\n        /* \"@openzeppelin/contracts/utils/Address.sol\":9003:9013   */\n      dup2\n        /* \"@openzeppelin/contracts/utils/Address.sol\":8997:9014   */\n      mload\n        /* \"@openzeppelin/contracts/utils/Address.sol\":9059:9074   */\n      dup1\n        /* \"@openzeppelin/contracts/utils/Address.sol\":9046:9056   */\n      dup4\n        /* \"@openzeppelin/contracts/utils/Address.sol\":9042:9044   */\n      0x20\n        /* \"@openzeppelin/contracts/utils/Address.sol\":9038:9057   */\n      add\n        /* \"@openzeppelin/contracts/utils/Address.sol\":9031:9075   */\n      revert\n        /* \"@openzeppelin/contracts/utils/Address.sol\":8771:9150   */\n    tag_200:\n        /* \"@openzeppelin/contracts/utils/Address.sol\":9126:9138   */\n      dup1\n        /* \"@openzeppelin/contracts/utils/Address.sol\":9119:9139   */\n      mload(0x40)\n      shl(0xe5, 0x461bcd)\n      dup2\n      mstore\n      0x04\n      add\n      tag_57\n      swap2\n      swap1\n      tag_203\n      jump\t// in\n        /* \"#utility.yul\":14:194   */\n    tag_16:\n        /* \"#utility.yul\":73:79   */\n      0x00\n        /* \"#utility.yul\":126:128   */\n      0x20\n        /* \"#utility.yul\":114:123   */\n      dup3\n        /* \"#utility.yul\":105:112   */\n      dup5\n        /* \"#utility.yul\":101:124   */\n      sub\n        /* \"#utility.yul\":97:129   */\n      slt\n        /* \"#utility.yul\":94:146   */\n      iszero\n      tag_209\n      jumpi\n        /* \"#utility.yul\":142:143   */\n      0x00\n        /* \"#utility.yul\":139:140   */\n      dup1\n        /* \"#utility.yul\":132:144   */\n      revert\n        /* \"#utility.yul\":94:146   */\n    tag_209:\n      pop\n        /* \"#utility.yul\":165:188   */\n      calldataload\n      swap2\n        /* \"#utility.yul\":14:194   */\n      swap1\n      pop\n      jump\t// out\n        /* \"#utility.yul\":199:353   */\n    tag_204:\n      sub(shl(0xa0, 0x01), 0x01)\n        /* \"#utility.yul\":278:283   */\n      dup2\n        /* \"#utility.yul\":274:328   */\n      and\n        /* \"#utility.yul\":267:272   */\n      dup2\n        /* \"#utility.yul\":264:329   */\n      eq\n        /* \"#utility.yul\":254:347   */\n      tag_83\n      jumpi\n        /* \"#utility.yul\":343:344   */\n      0x00\n        /* \"#utility.yul\":340:341   */\n      dup1\n        /* \"#utility.yul\":333:345   */\n      revert\n        /* \"#utility.yul\":358:605   */\n    tag_22:\n        /* \"#utility.yul\":417:423   */\n      0x00\n        /* \"#utility.yul\":470:472   */\n      0x20\n        /* \"#utility.yul\":458:467   */\n      dup3\n        /* \"#utility.yul\":449:456   */\n      dup5\n        /* \"#utility.yul\":445:468   */\n      sub\n        /* \"#utility.yul\":441:473   */\n      slt\n        /* \"#utility.yul\":438:490   */\n      iszero\n      tag_213\n      jumpi\n        /* \"#utility.yul\":486:487   */\n      0x00\n        /* \"#utility.yul\":483:484   */\n      dup1\n        /* \"#utility.yul\":476:488   */\n      revert\n        /* \"#utility.yul\":438:490   */\n    tag_213:\n        /* \"#utility.yul\":525:534   */\n      dup2\n        /* \"#utility.yul\":512:535   */\n      calldataload\n        /* \"#utility.yul\":544:575   */\n      tag_145\n        /* \"#utility.yul\":569:574   */\n      dup2\n        /* \"#utility.yul\":544:575   */\n      tag_204\n      jump\t// in\n        /* \"#utility.yul\":610:1451   */\n    tag_25:\n        /* \"#utility.yul\":835:837   */\n      0x20\n        /* \"#utility.yul\":887:908   */\n      dup1\n      dup3\n      mstore\n        /* \"#utility.yul\":957:970   */\n      dup3\n      mload\n        /* \"#utility.yul\":860:878   */\n      dup3\n      dup3\n      add\n        /* \"#utility.yul\":979:1001   */\n      dup2\n      swap1\n      mstore\n        /* \"#utility.yul\":806:810   */\n      0x00\n      swap2\n        /* \"#utility.yul\":835:837   */\n      swap1\n        /* \"#utility.yul\":1020:1022   */\n      0x40\n      swap1\n        /* \"#utility.yul\":1038:1056   */\n      dup2\n      dup6\n      add\n      swap1\n        /* \"#utility.yul\":1079:1094   */\n      dup7\n      dup5\n      add\n        /* \"#utility.yul\":806:810   */\n      dup6\n        /* \"#utility.yul\":1122:1425   */\n    tag_216:\n        /* \"#utility.yul\":1136:1142   */\n      dup3\n        /* \"#utility.yul\":1133:1134   */\n      dup2\n        /* \"#utility.yul\":1130:1143   */\n      lt\n        /* \"#utility.yul\":1122:1425   */\n      iszero\n      tag_218\n      jumpi\n        /* \"#utility.yul\":1195:1208   */\n      dup2\n      mload\n        /* \"#utility.yul\":1237:1246   */\n      dup1\n      mload\n      sub(shl(0xa0, 0x01), 0x01)\n        /* \"#utility.yul\":1233:1291   */\n      and\n        /* \"#utility.yul\":1221:1292   */\n      dup6\n      mstore\n        /* \"#utility.yul\":1332:1343   */\n      dup7\n      add\n        /* \"#utility.yul\":1326:1344   */\n      mload\n        /* \"#utility.yul\":1312:1324   */\n      dup7\n      dup6\n      add\n        /* \"#utility.yul\":1305:1345   */\n      mstore\n        /* \"#utility.yul\":1365:1377   */\n      swap3\n      dup5\n      add\n      swap3\n        /* \"#utility.yul\":1400:1415   */\n      swap1\n      dup6\n      add\n      swap1\n        /* \"#utility.yul\":1158:1159   */\n      0x01\n        /* \"#utility.yul\":1151:1160   */\n      add\n        /* \"#utility.yul\":1122:1425   */\n      jump(tag_216)\n    tag_218:\n      pop\n        /* \"#utility.yul\":1442:1445   */\n      swap2\n      swap8\n        /* \"#utility.yul\":610:1451   */\n      swap7\n      pop\n      pop\n      pop\n      pop\n      pop\n      pop\n      pop\n      jump\t// out\n        /* \"#utility.yul\":3038:3165   */\n    tag_205:\n        /* \"#utility.yul\":3099:3109   */\n      0x4e487b71\n        /* \"#utility.yul\":3094:3097   */\n      0xe0\n        /* \"#utility.yul\":3090:3110   */\n      shl\n        /* \"#utility.yul\":3087:3088   */\n      0x00\n        /* \"#utility.yul\":3080:3111   */\n      mstore\n        /* \"#utility.yul\":3130:3134   */\n      0x11\n        /* \"#utility.yul\":3127:3128   */\n      0x04\n        /* \"#utility.yul\":3120:3135   */\n      mstore\n        /* \"#utility.yul\":3154:3158   */\n      0x24\n        /* \"#utility.yul\":3151:3152   */\n      0x00\n        /* \"#utility.yul\":3144:3159   */\n      revert\n        /* \"#utility.yul\":3170:3295   */\n    tag_62:\n        /* \"#utility.yul\":3235:3244   */\n      dup1\n      dup3\n      add\n        /* \"#utility.yul\":3256:3266   */\n      dup1\n      dup3\n      gt\n        /* \"#utility.yul\":3253:3289   */\n      iszero\n      tag_156\n      jumpi\n        /* \"#utility.yul\":3269:3287   */\n      tag_156\n      tag_205\n      jump\t// in\n        /* \"#utility.yul\":3300:3427   */\n    tag_68:\n        /* \"#utility.yul\":3361:3371   */\n      0x4e487b71\n        /* \"#utility.yul\":3356:3359   */\n      0xe0\n        /* \"#utility.yul\":3352:3372   */\n      shl\n        /* \"#utility.yul\":3349:3350   */\n      0x00\n        /* \"#utility.yul\":3342:3373   */\n      mstore\n        /* \"#utility.yul\":3392:3396   */\n      0x32\n        /* \"#utility.yul\":3389:3390   */\n      0x04\n        /* \"#utility.yul\":3382:3397   */\n      mstore\n        /* \"#utility.yul\":3416:3420   */\n      0x24\n        /* \"#utility.yul\":3413:3414   */\n      0x00\n        /* \"#utility.yul\":3406:3421   */\n      revert\n        /* \"#utility.yul\":3432:3567   */\n    tag_72:\n        /* \"#utility.yul\":3471:3474   */\n      0x00\n        /* \"#utility.yul\":3492:3509   */\n      0x01\n      dup3\n      add\n        /* \"#utility.yul\":3489:3532   */\n      tag_232\n      jumpi\n        /* \"#utility.yul\":3512:3530   */\n      tag_232\n      tag_205\n      jump\t// in\n    tag_232:\n      pop\n        /* \"#utility.yul\":3559:3560   */\n      0x01\n        /* \"#utility.yul\":3548:3561   */\n      add\n      swap1\n        /* \"#utility.yul\":3432:3567   */\n      jump\t// out\n        /* \"#utility.yul\":3572:3708   */\n    tag_77:\n        /* \"#utility.yul\":3611:3614   */\n      0x00\n        /* \"#utility.yul\":3639:3644   */\n      dup2\n        /* \"#utility.yul\":3629:3668   */\n      tag_235\n      jumpi\n        /* \"#utility.yul\":3648:3666   */\n      tag_235\n      tag_205\n      jump\t// in\n    tag_235:\n      pop\n      not(0x00)\n        /* \"#utility.yul\":3684:3702   */\n      add\n      swap1\n        /* \"#utility.yul\":3572:3708   */\n      jump\t// out\n        /* \"#utility.yul\":4473:4600   */\n    tag_97:\n        /* \"#utility.yul\":4534:4544   */\n      0x4e487b71\n        /* \"#utility.yul\":4529:4532   */\n      0xe0\n        /* \"#utility.yul\":4525:4545   */\n      shl\n        /* \"#utility.yul\":4522:4523   */\n      0x00\n        /* \"#utility.yul\":4515:4546   */\n      mstore\n        /* \"#utility.yul\":4565:4569   */\n      0x41\n        /* \"#utility.yul\":4562:4563   */\n      0x04\n        /* \"#utility.yul\":4555:4570   */\n      mstore\n        /* \"#utility.yul\":4589:4593   */\n      0x24\n        /* \"#utility.yul\":4586:4587   */\n      0x00\n        /* \"#utility.yul\":4579:4594   */\n      revert\n        /* \"#utility.yul\":4605:4856   */\n    tag_132:\n        /* \"#utility.yul\":4675:4681   */\n      0x00\n        /* \"#utility.yul\":4728:4730   */\n      0x20\n        /* \"#utility.yul\":4716:4725   */\n      dup3\n        /* \"#utility.yul\":4707:4714   */\n      dup5\n        /* \"#utility.yul\":4703:4726   */\n      sub\n        /* \"#utility.yul\":4699:4731   */\n      slt\n        /* \"#utility.yul\":4696:4748   */\n      iszero\n      tag_240\n      jumpi\n        /* \"#utility.yul\":4744:4745   */\n      0x00\n        /* \"#utility.yul\":4741:4742   */\n      dup1\n        /* \"#utility.yul\":4734:4746   */\n      revert\n        /* \"#utility.yul\":4696:4748   */\n    tag_240:\n        /* \"#utility.yul\":4776:4785   */\n      dup2\n        /* \"#utility.yul\":4770:4786   */\n      mload\n        /* \"#utility.yul\":4795:4826   */\n      tag_145\n        /* \"#utility.yul\":4820:4825   */\n      dup2\n        /* \"#utility.yul\":4795:4826   */\n      tag_204\n      jump\t// in\n        /* \"#utility.yul\":5576:5704   */\n    tag_152:\n        /* \"#utility.yul\":5643:5652   */\n      dup2\n      dup2\n      sub\n        /* \"#utility.yul\":5664:5675   */\n      dup2\n      dup2\n      gt\n        /* \"#utility.yul\":5661:5698   */\n      iszero\n      tag_156\n      jumpi\n        /* \"#utility.yul\":5678:5696   */\n      tag_156\n      tag_205\n      jump\t// in\n        /* \"#utility.yul\":5709:5877   */\n    tag_154:\n        /* \"#utility.yul\":5782:5791   */\n      dup1\n      dup3\n      mul\n        /* \"#utility.yul\":5813:5822   */\n      dup2\n      iszero\n        /* \"#utility.yul\":5830:5845   */\n      dup3\n      dup3\n      div\n        /* \"#utility.yul\":5824:5846   */\n      dup5\n      eq\n        /* \"#utility.yul\":5810:5847   */\n      or\n        /* \"#utility.yul\":5800:5871   */\n      tag_156\n      jumpi\n        /* \"#utility.yul\":5851:5869   */\n      tag_156\n      tag_205\n      jump\t// in\n        /* \"#utility.yul\":5882:6099   */\n    tag_157:\n        /* \"#utility.yul\":5922:5923   */\n      0x00\n        /* \"#utility.yul\":5948:5949   */\n      dup3\n        /* \"#utility.yul\":5938:6070   */\n      tag_251\n      jumpi\n        /* \"#utility.yul\":5992:6002   */\n      0x4e487b71\n        /* \"#utility.yul\":5987:5990   */\n      0xe0\n        /* \"#utility.yul\":5983:6003   */\n      shl\n        /* \"#utility.yul\":5980:5981   */\n      0x00\n        /* \"#utility.yul\":5973:6004   */\n      mstore\n        /* \"#utility.yul\":6027:6031   */\n      0x12\n        /* \"#utility.yul\":6024:6025   */\n      0x04\n        /* \"#utility.yul\":6017:6032   */\n      mstore\n        /* \"#utility.yul\":6055:6059   */\n      0x24\n        /* \"#utility.yul\":6052:6053   */\n      0x00\n        /* \"#utility.yul\":6045:6060   */\n      revert\n        /* \"#utility.yul\":5938:6070   */\n    tag_251:\n      pop\n        /* \"#utility.yul\":6084:6093   */\n      div\n      swap1\n        /* \"#utility.yul\":5882:6099   */\n      jump\t// out\n        /* \"#utility.yul\":6406:6683   */\n    tag_169:\n        /* \"#utility.yul\":6473:6479   */\n      0x00\n        /* \"#utility.yul\":6526:6528   */\n      0x20\n        /* \"#utility.yul\":6514:6523   */\n      dup3\n        /* \"#utility.yul\":6505:6512   */\n      dup5\n        /* \"#utility.yul\":6501:6524   */\n      sub\n        /* \"#utility.yul\":6497:6529   */\n      slt\n        /* \"#utility.yul\":6494:6546   */\n      iszero\n      tag_254\n      jumpi\n        /* \"#utility.yul\":6542:6543   */\n      0x00\n        /* \"#utility.yul\":6539:6540   */\n      dup1\n        /* \"#utility.yul\":6532:6544   */\n      revert\n        /* \"#utility.yul\":6494:6546   */\n    tag_254:\n        /* \"#utility.yul\":6574:6583   */\n      dup2\n        /* \"#utility.yul\":6568:6584   */\n      mload\n        /* \"#utility.yul\":6627:6632   */\n      dup1\n        /* \"#utility.yul\":6620:6633   */\n      iszero\n        /* \"#utility.yul\":6613:6634   */\n      iszero\n        /* \"#utility.yul\":6606:6611   */\n      dup2\n        /* \"#utility.yul\":6603:6635   */\n      eq\n        /* \"#utility.yul\":6593:6653   */\n      tag_145\n      jumpi\n        /* \"#utility.yul\":6649:6650   */\n      0x00\n        /* \"#utility.yul\":6646:6647   */\n      dup1\n        /* \"#utility.yul\":6639:6651   */\n      revert\n        /* \"#utility.yul\":7506:7756   */\n    tag_206:\n        /* \"#utility.yul\":7591:7592   */\n      0x00\n        /* \"#utility.yul\":7601:7714   */\n    tag_259:\n        /* \"#utility.yul\":7615:7621   */\n      dup4\n        /* \"#utility.yul\":7612:7613   */\n      dup2\n        /* \"#utility.yul\":7609:7622   */\n      lt\n        /* \"#utility.yul\":7601:7714   */\n      iszero\n      tag_261\n      jumpi\n        /* \"#utility.yul\":7691:7702   */\n      dup2\n      dup2\n      add\n        /* \"#utility.yul\":7685:7703   */\n      mload\n        /* \"#utility.yul\":7672:7683   */\n      dup4\n      dup3\n      add\n        /* \"#utility.yul\":7665:7704   */\n      mstore\n        /* \"#utility.yul\":7637:7639   */\n      0x20\n        /* \"#utility.yul\":7630:7640   */\n      add\n        /* \"#utility.yul\":7601:7714   */\n      jump(tag_259)\n    tag_261:\n      pop\n      pop\n        /* \"#utility.yul\":7748:7749   */\n      0x00\n        /* \"#utility.yul\":7730:7746   */\n      swap2\n      add\n        /* \"#utility.yul\":7723:7750   */\n      mstore\n        /* \"#utility.yul\":7506:7756   */\n      jump\t// out\n        /* \"#utility.yul\":7761:8048   */\n    tag_181:\n        /* \"#utility.yul\":7890:7893   */\n      0x00\n        /* \"#utility.yul\":7928:7934   */\n      dup3\n        /* \"#utility.yul\":7922:7935   */\n      mload\n        /* \"#utility.yul\":7944:8010   */\n      tag_263\n        /* \"#utility.yul\":8003:8009   */\n      dup2\n        /* \"#utility.yul\":7998:8001   */\n      dup5\n        /* \"#utility.yul\":7991:7995   */\n      0x20\n        /* \"#utility.yul\":7983:7989   */\n      dup8\n        /* \"#utility.yul\":7979:7996   */\n      add\n        /* \"#utility.yul\":7944:8010   */\n      tag_206\n      jump\t// in\n    tag_263:\n        /* \"#utility.yul\":8026:8042   */\n      swap2\n      swap1\n      swap2\n      add\n      swap3\n        /* \"#utility.yul\":7761:8048   */\n      swap2\n      pop\n      pop\n      jump\t// out\n        /* \"#utility.yul\":8411:8807   */\n    tag_203:\n        /* \"#utility.yul\":8560:8562   */\n      0x20\n        /* \"#utility.yul\":8549:8558   */\n      dup2\n        /* \"#utility.yul\":8542:8563   */\n      mstore\n        /* \"#utility.yul\":8523:8527   */\n      0x00\n        /* \"#utility.yul\":8592:8598   */\n      dup3\n        /* \"#utility.yul\":8586:8599   */\n      mload\n        /* \"#utility.yul\":8635:8641   */\n      dup1\n        /* \"#utility.yul\":8630:8632   */\n      0x20\n        /* \"#utility.yul\":8619:8628   */\n      dup5\n        /* \"#utility.yul\":8615:8633   */\n      add\n        /* \"#utility.yul\":8608:8642   */\n      mstore\n        /* \"#utility.yul\":8651:8730   */\n      tag_266\n        /* \"#utility.yul\":8723:8729   */\n      dup2\n        /* \"#utility.yul\":8718:8720   */\n      0x40\n        /* \"#utility.yul\":8707:8716   */\n      dup6\n        /* \"#utility.yul\":8703:8721   */\n      add\n        /* \"#utility.yul\":8698:8700   */\n      0x20\n        /* \"#utility.yul\":8690:8696   */\n      dup8\n        /* \"#utility.yul\":8686:8701   */\n      add\n        /* \"#utility.yul\":8651:8730   */\n      tag_206\n      jump\t// in\n    tag_266:\n        /* \"#utility.yul\":8791:8793   */\n      0x1f\n        /* \"#utility.yul\":8770:8785   */\n      add\n      not(0x1f)\n        /* \"#utility.yul\":8766:8795   */\n      and\n        /* \"#utility.yul\":8751:8796   */\n      swap2\n      swap1\n      swap2\n      add\n        /* \"#utility.yul\":8798:8800   */\n      0x40\n        /* \"#utility.yul\":8747:8801   */\n      add\n      swap3\n        /* \"#utility.yul\":8411:8807   */\n      swap2\n      pop\n      pop\n      jump\t// out\n\n    auxdata: 0xa2646970667358221220e7765604acda5124d5935dc90ec44544c0c48bc209b5440190b86000b239778f64736f6c63430008110033\n}\n",
    "bytecode": {
      "linkReferences": {},
      "object": "60c060405234801561001057600080fd5b506040516110a63803806110a683398101604081905261002f91610063565b60016000556001600160a01b0391821660a0521660805261009d565b6001600160a01b038116811461006057600080fd5b50565b6000806040838503121561007657600080fd5b82516100818161004b565b60208401519092506100928161004b565b809150509250929050565b60805160a051610fc96100dd6000396000818160f3015281816103c60152818161078301526108660152600081816101b701526104e40152610fc96000f3fe608060405234801561001057600080fd5b50600436106100a35760003560e01c80639168ae7211610076578063a694fc3a1161005b578063a694fc3a1461019f578063d1af0c7d146101b2578063f854a27f146101d957600080fd5b80639168ae721461012d578063940670451461017657600080fd5b80632e1a7d4d146100a8578063372500ab146100bd5780635bce04f7146100c55780636588103b146100ee575b600080fd5b6100bb6100b6366004610d6d565b6101fa565b005b6100bb610447565b6100d86100d3366004610d9b565b610513565b6040516100e59190610db8565b60405180910390f35b6101157f000000000000000000000000000000000000000000000000000000000000000081565b6040516001600160a01b0390911681526020016100e5565b61015b61013b366004610d9b565b600260208190526000918252604090912080549181015460039091015483565b604080519384526020840192909252908201526060016100e5565b610115610184366004610d6d565b6003602052600090815260409020546001600160a01b031681565b6100bb6101ad366004610d6d565b61070d565b6101157f000000000000000000000000000000000000000000000000000000000000000081565b6101ec6101e7366004610d9b565b610984565b6040519081526020016100e5565b6102026109bc565b336000908152600260205260409020546102635760405162461bcd60e51b815260206004820152601860248201527f596f752068617665206e6f20746f6b656e207374616b6564000000000000000060448201526064015b60405180910390fd5b600061026e33610a15565b33600090815260026020526040812060030180549293508392909190610295908490610e26565b9091555060009050805b33600090815260026020526040902060010154811015610311573360009081526002602052604090206001018054859190839081106102e0576102e0610e39565b906000526020600020906002020160010154036102ff57809150610311565b8061030981610e4f565b91505061029f565b5033600090815260026020526040812060010180548390811061033657610336610e39565b6000918252602080832060029283020180546001600160a01b0319166001600160a01b0395909516949094179093553382529091526040812080549161037b83610e68565b90915550506000838152600360205260409081902080546001600160a01b0319169055516323b872dd60e01b8152306004820152336024820152604481018490526001600160a01b037f000000000000000000000000000000000000000000000000000000000000000016906323b872dd90606401600060405180830381600087803b15801561040a57600080fd5b505af115801561041e573d6000803e3d6000fd5b505033600090815260026020819052604090912042910155506104449250610a6e915050565b50565b33600081815260026020526040812060030154909161046590610a15565b61046f9190610e26565b9050600081116104c15760405162461bcd60e51b815260206004820152601c60248201527f596f752068617665206e6f207265776172647320746f20636c61696d00000000604482015260640161025a565b3360008181526002602081905260408220429181019190915560030155610444907f00000000000000000000000000000000000000000000000000000000000000006001600160a01b03169083610a75565b6001600160a01b038116600090815260026020526040902054606090156106c9576001600160a01b03821660009081526002602052604081205467ffffffffffffffff81111561056557610565610e7f565b6040519080825280602002602001820160405280156105aa57816020015b60408051808201909152600080825260208201528152602001906001900390816105835790505b5090506000805b6001600160a01b0385166000908152600260205260409020600101548110156106c0576001600160a01b038516600090815260026020526040812060010180548390811061060157610601610e39565b60009182526020909120600290910201546001600160a01b0316146106ae576001600160a01b038516600090815260026020526040902060010180548290811061064d5761064d610e39565b60009182526020918290206040805180820190915260029092020180546001600160a01b031682526001015491810191909152835184908490811061069457610694610e39565b602002602001018190525081806106aa90610e4f565b9250505b806106b881610e4f565b9150506105b1565b50909392505050565b6040805160008082526020820190925290610706565b60408051808201909152600080825260208201528152602001906001900390816106df5790505b5092915050565b6107156109bc565b336000908152600260205260409020541561076357600061073533610a15565b3360009081526002602052604081206003018054929350839290919061075c908490610e26565b9091555050505b6040516331a9108f60e11b81526004810182905233906001600160a01b037f00000000000000000000000000000000000000000000000000000000000000001690636352211e90602401602060405180830381865afa1580156107ca573d6000803e3d6000fd5b505050506040513d601f19601f820116820180604052508101906107ee9190610e95565b6001600160a01b0316146108445760405162461bcd60e51b815260206004820152601a60248201527f596f7520646f206e6f74206f776e207468697320746f6b656e21000000000000604482015260640161025a565b6040516323b872dd60e01b8152336004820152306024820152604481018290527f00000000000000000000000000000000000000000000000000000000000000006001600160a01b0316906323b872dd90606401600060405180830381600087803b1580156108b257600080fd5b505af11580156108c6573d6000803e3d6000fd5b50506040805180820182523380825260208083018781526000838152600280845295812060018082018054808301825590845294832087519590980290970180546001600160a01b0319166001600160a01b039095169490941784559151929095019190915590835280549194509092509061094183610e4f565b909155505050600081815260036020908152604080832080546001600160a01b031916339081179091558352600291829052909120429101556104446001600055565b6001600160a01b03811660009081526002602052604081206003015481906109ab84610a15565b6109b59190610e26565b9392505050565b600260005403610a0e5760405162461bcd60e51b815260206004820152601f60248201527f5265656e7472616e637947756172643a207265656e7472616e742063616c6c00604482015260640161025a565b6002600055565b6001546001600160a01b0382166000908152600260208190526040822080549101549192610e1092909190610a4a9042610eb2565b610a549190610ec5565b610a5e9190610ec5565b610a689190610edc565b92915050565b6001600055565b604080516001600160a01b038416602482015260448082018490528251808303909101815260649091019091526020810180517bffffffffffffffffffffffffffffffffffffffffffffffffffffffff1663a9059cbb60e01b179052610adc908490610ae1565b505050565b6000610b36826040518060400160405280602081526020017f5361666545524332303a206c6f772d6c6576656c2063616c6c206661696c6564815250856001600160a01b0316610bc69092919063ffffffff16565b805190915015610adc5780806020019051810190610b549190610efe565b610adc5760405162461bcd60e51b815260206004820152602a60248201527f5361666545524332303a204552433230206f7065726174696f6e20646964206e60448201527f6f74207375636365656400000000000000000000000000000000000000000000606482015260840161025a565b6060610bd58484600085610bdd565b949350505050565b606082471015610c555760405162461bcd60e51b815260206004820152602660248201527f416464726573733a20696e73756666696369656e742062616c616e636520666f60448201527f722063616c6c0000000000000000000000000000000000000000000000000000606482015260840161025a565b600080866001600160a01b03168587604051610c719190610f44565b60006040518083038185875af1925050503d8060008114610cae576040519150601f19603f3d011682016040523d82523d6000602084013e610cb3565b606091505b5091509150610cc487838387610ccf565b979650505050505050565b60608315610d3e578251600003610d37576001600160a01b0385163b610d375760405162461bcd60e51b815260206004820152601d60248201527f416464726573733a2063616c6c20746f206e6f6e2d636f6e7472616374000000604482015260640161025a565b5081610bd5565b610bd58383815115610d535781518083602001fd5b8060405162461bcd60e51b815260040161025a9190610f60565b600060208284031215610d7f57600080fd5b5035919050565b6001600160a01b038116811461044457600080fd5b600060208284031215610dad57600080fd5b81356109b581610d86565b602080825282518282018190526000919060409081850190868401855b82811015610e0357815180516001600160a01b03168552860151868501529284019290850190600101610dd5565b5091979650505050505050565b634e487b7160e01b600052601160045260246000fd5b80820180821115610a6857610a68610e10565b634e487b7160e01b600052603260045260246000fd5b600060018201610e6157610e61610e10565b5060010190565b600081610e7757610e77610e10565b506000190190565b634e487b7160e01b600052604160045260246000fd5b600060208284031215610ea757600080fd5b81516109b581610d86565b81810381811115610a6857610a68610e10565b8082028115828204841417610a6857610a68610e10565b600082610ef957634e487b7160e01b600052601260045260246000fd5b500490565b600060208284031215610f1057600080fd5b815180151581146109b557600080fd5b60005b83811015610f3b578181015183820152602001610f23565b50506000910152565b60008251610f56818460208701610f20565b9190910192915050565b6020815260008251806020840152610f7f816040850160208701610f20565b601f01601f1916919091016040019291505056fea2646970667358221220e7765604acda5124d5935dc90ec44544c0c48bc209b5440190b86000b239778f64736f6c63430008110033",
      "opcodes": "PUSH1 0xC0 PUSH1 0x40 MSTORE CALLVALUE DUP1 ISZERO PUSH2 0x10 JUMPI PUSH1 0x0 DUP1 REVERT JUMPDEST POP PUSH1 0x40 MLOAD PUSH2 0x10A6 CODESIZE SUB DUP1 PUSH2 0x10A6 DUP4 CODECOPY DUP2 ADD PUSH1 0x40 DUP2 SWAP1 MSTORE PUSH2 0x2F SWAP2 PUSH2 0x63 JUMP JUMPDEST PUSH1 0x1 PUSH1 0x0 SSTORE PUSH1 0x1 PUSH1 0x1 PUSH1 0xA0 SHL SUB SWAP2 DUP3 AND PUSH1 0xA0 MSTORE AND PUSH1 0x80 MSTORE PUSH2 0x9D JUMP JUMPDEST PUSH1 0x1 PUSH1 0x1 PUSH1 0xA0 SHL SUB DUP2 AND DUP2 EQ PUSH2 0x60 JUMPI PUSH1 0x0 DUP1 REVERT JUMPDEST POP JUMP JUMPDEST PUSH1 0x0 DUP1 PUSH1 0x40 DUP4 DUP6 SUB SLT ISZERO PUSH2 0x76 JUMPI PUSH1 0x0 DUP1 REVERT JUMPDEST DUP3 MLOAD PUSH2 0x81 DUP2 PUSH2 0x4B JUMP JUMPDEST PUSH1 0x20 DUP5 ADD MLOAD SWAP1 SWAP3 POP PUSH2 0x92 DUP2 PUSH2 0x4B JUMP JUMPDEST DUP1 SWAP2 POP POP SWAP3 POP SWAP3 SWAP1 POP JUMP JUMPDEST PUSH1 0x80 MLOAD PUSH1 0xA0 MLOAD PUSH2 0xFC9 PUSH2 0xDD PUSH1 0x0 CODECOPY PUSH1 0x0 DUP2 DUP2 PUSH1 0xF3 ADD MSTORE DUP2 DUP2 PUSH2 0x3C6 ADD MSTORE DUP2 DUP2 PUSH2 0x783 ADD MSTORE PUSH2 0x866 ADD MSTORE PUSH1 0x0 DUP2 DUP2 PUSH2 0x1B7 ADD MSTORE PUSH2 0x4E4 ADD MSTORE PUSH2 0xFC9 PUSH1 0x0 RETURN INVALID PUSH1 0x80 PUSH1 0x40 MSTORE CALLVALUE DUP1 ISZERO PUSH2 0x10 JUMPI PUSH1 0x0 DUP1 REVERT JUMPDEST POP PUSH1 0x4 CALLDATASIZE LT PUSH2 0xA3 JUMPI PUSH1 0x0 CALLDATALOAD PUSH1 0xE0 SHR DUP1 PUSH4 0x9168AE72 GT PUSH2 0x76 JUMPI DUP1 PUSH4 0xA694FC3A GT PUSH2 0x5B JUMPI DUP1 PUSH4 0xA694FC3A EQ PUSH2 0x19F JUMPI DUP1 PUSH4 0xD1AF0C7D EQ PUSH2 0x1B2 JUMPI DUP1 PUSH4 0xF854A27F EQ PUSH2 0x1D9 JUMPI PUSH1 0x0 DUP1 REVERT JUMPDEST DUP1 PUSH4 0x9168AE72 EQ PUSH2 0x12D JUMPI DUP1 PUSH4 0x94067045 EQ PUSH2 0x176 JUMPI PUSH1 0x0 DUP1 REVERT JUMPDEST DUP1 PUSH4 0x2E1A7D4D EQ PUSH2 0xA8 JUMPI DUP1 PUSH4 0x372500AB EQ PUSH2 0xBD JUMPI DUP1 PUSH4 0x5BCE04F7 EQ PUSH2 0xC5 JUMPI DUP1 PUSH4 0x6588103B EQ PUSH2 0xEE JUMPI JUMPDEST PUSH1 0x0 DUP1 REVERT JUMPDEST PUSH2 0xBB PUSH2 0xB6 CALLDATASIZE PUSH1 0x4 PUSH2 0xD6D JUMP JUMPDEST PUSH2 0x1FA JUMP JUMPDEST STOP JUMPDEST PUSH2 0xBB PUSH2 0x447 JUMP JUMPDEST PUSH2 0xD8 PUSH2 0xD3 CALLDATASIZE PUSH1 0x4 PUSH2 0xD9B JUMP JUMPDEST PUSH2 0x513 JUMP JUMPDEST PUSH1 0x40 MLOAD PUSH2 0xE5 SWAP2 SWAP1 PUSH2 0xDB8 JUMP JUMPDEST PUSH1 0x40 MLOAD DUP1 SWAP2 SUB SWAP1 RETURN JUMPDEST PUSH2 0x115 PUSH32 0x0 DUP2 JUMP JUMPDEST PUSH1 0x40 MLOAD PUSH1 0x1 PUSH1 0x1 PUSH1 0xA0 SHL SUB SWAP1 SWAP2 AND DUP2 MSTORE PUSH1 0x20 ADD PUSH2 0xE5 JUMP JUMPDEST PUSH2 0x15B PUSH2 0x13B CALLDATASIZE PUSH1 0x4 PUSH2 0xD9B JUMP JUMPDEST PUSH1 0x2 PUSH1 0x20 DUP2 SWAP1 MSTORE PUSH1 0x0 SWAP2 DUP3 MSTORE PUSH1 0x40 SWAP1 SWAP2 KECCAK256 DUP1 SLOAD SWAP2 DUP2 ADD SLOAD PUSH1 0x3 SWAP1 SWAP2 ADD SLOAD DUP4 JUMP JUMPDEST PUSH1 0x40 DUP1 MLOAD SWAP4 DUP5 MSTORE PUSH1 0x20 DUP5 ADD SWAP3 SWAP1 SWAP3 MSTORE SWAP1 DUP3 ADD MSTORE PUSH1 0x60 ADD PUSH2 0xE5 JUMP JUMPDEST PUSH2 0x115 PUSH2 0x184 CALLDATASIZE PUSH1 0x4 PUSH2 0xD6D JUMP JUMPDEST PUSH1 0x3 PUSH1 0x20 MSTORE PUSH1 0x0 SWAP1 DUP2 MSTORE PUSH1 0x40 SWAP1 KECCAK256 SLOAD PUSH1 0x1 PUSH1 0x1 PUSH1 0xA0 SHL SUB AND DUP2 JUMP JUMPDEST PUSH2 0xBB PUSH2 0x1AD CALLDATASIZE PUSH1 0x4 PUSH2 0xD6D JUMP JUMPDEST PUSH2 0x70D JUMP JUMPDEST PUSH2 0x115 PUSH32 0x0 DUP2 JUMP JUMPDEST PUSH2 0x1EC PUSH2 0x1E7 CALLDATASIZE PUSH1 0x4 PUSH2 0xD9B JUMP JUMPDEST PUSH2 0x984 JUMP JUMPDEST PUSH1 0x40 MLOAD SWAP1 DUP2 MSTORE PUSH1 0x20 ADD PUSH2 0xE5 JUMP JUMPDEST PUSH2 0x202 PUSH2 0x9BC JUMP JUMPDEST CALLER PUSH1 0x0 SWAP1 DUP2 MSTORE PUSH1 0x2 PUSH1 0x20 MSTORE PUSH1 0x40 SWAP1 KECCAK256 SLOAD PUSH2 0x263 JUMPI PUSH1 0x40 MLOAD PUSH3 0x461BCD PUSH1 0xE5 SHL DUP2 MSTORE PUSH1 0x20 PUSH1 0x4 DUP3 ADD MSTORE PUSH1 0x18 PUSH1 0x24 DUP3 ADD MSTORE PUSH32 0x596F752068617665206E6F20746F6B656E207374616B65640000000000000000 PUSH1 0x44 DUP3 ADD MSTORE PUSH1 0x64 ADD JUMPDEST PUSH1 0x40 MLOAD DUP1 SWAP2 SUB SWAP1 REVERT JUMPDEST PUSH1 0x0 PUSH2 0x26E CALLER PUSH2 0xA15 JUMP JUMPDEST CALLER PUSH1 0x0 SWAP1 DUP2 MSTORE PUSH1 0x2 PUSH1 0x20 MSTORE PUSH1 0x40 DUP2 KECCAK256 PUSH1 0x3 ADD DUP1 SLOAD SWAP3 SWAP4 POP DUP4 SWAP3 SWAP1 SWAP2 SWAP1 PUSH2 0x295 SWAP1 DUP5 SWAP1 PUSH2 0xE26 JUMP JUMPDEST SWAP1 SWAP2 SSTORE POP PUSH1 0x0 SWAP1 POP DUP1 JUMPDEST CALLER PUSH1 0x0 SWAP1 DUP2 MSTORE PUSH1 0x2 PUSH1 0x20 MSTORE PUSH1 0x40 SWAP1 KECCAK256 PUSH1 0x1 ADD SLOAD DUP2 LT ISZERO PUSH2 0x311 JUMPI CALLER PUSH1 0x0 SWAP1 DUP2 MSTORE PUSH1 0x2 PUSH1 0x20 MSTORE PUSH1 0x40 SWAP1 KECCAK256 PUSH1 0x1 ADD DUP1 SLOAD DUP6 SWAP2 SWAP1 DUP4 SWAP1 DUP2 LT PUSH2 0x2E0 JUMPI PUSH2 0x2E0 PUSH2 0xE39 JUMP JUMPDEST SWAP1 PUSH1 0x0 MSTORE PUSH1 0x20 PUSH1 0x0 KECCAK256 SWAP1 PUSH1 0x2 MUL ADD PUSH1 0x1 ADD SLOAD SUB PUSH2 0x2FF JUMPI DUP1 SWAP2 POP PUSH2 0x311 JUMP JUMPDEST DUP1 PUSH2 0x309 DUP2 PUSH2 0xE4F JUMP JUMPDEST SWAP2 POP POP PUSH2 0x29F JUMP JUMPDEST POP CALLER PUSH1 0x0 SWAP1 DUP2 MSTORE PUSH1 0x2 PUSH1 0x20 MSTORE PUSH1 0x40 DUP2 KECCAK256 PUSH1 0x1 ADD DUP1 SLOAD DUP4 SWAP1 DUP2 LT PUSH2 0x336 JUMPI PUSH2 0x336 PUSH2 0xE39 JUMP JUMPDEST PUSH1 0x0 SWAP2 DUP3 MSTORE PUSH1 0x20 DUP1 DUP4 KECCAK256 PUSH1 0x2 SWAP3 DUP4 MUL ADD DUP1 SLOAD PUSH1 0x1 PUSH1 0x1 PUSH1 0xA0 SHL SUB NOT AND PUSH1 0x1 PUSH1 0x1 PUSH1 0xA0 SHL SUB SWAP6 SWAP1 SWAP6 AND SWAP5 SWAP1 SWAP5 OR SWAP1 SWAP4 SSTORE CALLER DUP3 MSTORE SWAP1 SWAP2 MSTORE PUSH1 0x40 DUP2 KECCAK256 DUP1 SLOAD SWAP2 PUSH2 0x37B DUP4 PUSH2 0xE68 JUMP JUMPDEST SWAP1 SWAP2 SSTORE POP POP PUSH1 0x0 DUP4 DUP2 MSTORE PUSH1 0x3 PUSH1 0x20 MSTORE PUSH1 0x40 SWAP1 DUP2 SWAP1 KECCAK256 DUP1 SLOAD PUSH1 0x1 PUSH1 0x1 PUSH1 0xA0 SHL SUB NOT AND SWAP1 SSTORE MLOAD PUSH4 0x23B872DD PUSH1 0xE0 SHL DUP2 MSTORE ADDRESS PUSH1 0x4 DUP3 ADD MSTORE CALLER PUSH1 0x24 DUP3 ADD MSTORE PUSH1 0x44 DUP2 ADD DUP5 SWAP1 MSTORE PUSH1 0x1 PUSH1 0x1 PUSH1 0xA0 SHL SUB PUSH32 0x0 AND SWAP1 PUSH4 0x23B872DD SWAP1 PUSH1 0x64 ADD PUSH1 0x0 PUSH1 0x40 MLOAD DUP1 DUP4 SUB DUP2 PUSH1 0x0 DUP8 DUP1 EXTCODESIZE ISZERO DUP1 ISZERO PUSH2 0x40A JUMPI PUSH1 0x0 DUP1 REVERT JUMPDEST POP GAS CALL ISZERO DUP1 ISZERO PUSH2 0x41E JUMPI RETURNDATASIZE PUSH1 0x0 DUP1 RETURNDATACOPY RETURNDATASIZE PUSH1 0x0 REVERT JUMPDEST POP POP CALLER PUSH1 0x0 SWAP1 DUP2 MSTORE PUSH1 0x2 PUSH1 0x20 DUP2 SWAP1 MSTORE PUSH1 0x40 SWAP1 SWAP2 KECCAK256 TIMESTAMP SWAP2 ADD SSTORE POP PUSH2 0x444 SWAP3 POP PUSH2 0xA6E SWAP2 POP POP JUMP JUMPDEST POP JUMP JUMPDEST CALLER PUSH1 0x0 DUP2 DUP2 MSTORE PUSH1 0x2 PUSH1 0x20 MSTORE PUSH1 0x40 DUP2 KECCAK256 PUSH1 0x3 ADD SLOAD SWAP1 SWAP2 PUSH2 0x465 SWAP1 PUSH2 0xA15 JUMP JUMPDEST PUSH2 0x46F SWAP2 SWAP1 PUSH2 0xE26 JUMP JUMPDEST SWAP1 POP PUSH1 0x0 DUP2 GT PUSH2 0x4C1 JUMPI PUSH1 0x40 MLOAD PUSH3 0x461BCD PUSH1 0xE5 SHL DUP2 MSTORE PUSH1 0x20 PUSH1 0x4 DUP3 ADD MSTORE PUSH1 0x1C PUSH1 0x24 DUP3 ADD MSTORE PUSH32 0x596F752068617665206E6F207265776172647320746F20636C61696D00000000 PUSH1 0x44 DUP3 ADD MSTORE PUSH1 0x64 ADD PUSH2 0x25A JUMP JUMPDEST CALLER PUSH1 0x0 DUP2 DUP2 MSTORE PUSH1 0x2 PUSH1 0x20 DUP2 SWAP1 MSTORE PUSH1 0x40 DUP3 KECCAK256 TIMESTAMP SWAP2 DUP2 ADD SWAP2 SWAP1 SWAP2 SSTORE PUSH1 0x3 ADD SSTORE PUSH2 0x444 SWAP1 PUSH32 0x0 PUSH1 0x1 PUSH1 0x1 PUSH1 0xA0 SHL SUB AND SWAP1 DUP4 PUSH2 0xA75 JUMP JUMPDEST PUSH1 0x1 PUSH1 0x1 PUSH1 0xA0 SHL SUB DUP2 AND PUSH1 0x0 SWAP1 DUP2 MSTORE PUSH1 0x2 PUSH1 0x20 MSTORE PUSH1 0x40 SWAP1 KECCAK256 SLOAD PUSH1 0x60 SWAP1 ISZERO PUSH2 0x6C9 JUMPI PUSH1 0x1 PUSH1 0x1 PUSH1 0xA0 SHL SUB DUP3 AND PUSH1 0x0 SWAP1 DUP2 MSTORE PUSH1 0x2 PUSH1 0x20 MSTORE PUSH1 0x40 DUP2 KECCAK256 SLOAD PUSH8 0xFFFFFFFFFFFFFFFF DUP2 GT ISZERO PUSH2 0x565 JUMPI PUSH2 0x565 PUSH2 0xE7F JUMP JUMPDEST PUSH1 0x40 MLOAD SWAP1 DUP1 DUP3 MSTORE DUP1 PUSH1 0x20 MUL PUSH1 0x20 ADD DUP3 ADD PUSH1 0x40 MSTORE DUP1 ISZERO PUSH2 0x5AA JUMPI DUP2 PUSH1 0x20 ADD JUMPDEST PUSH1 0x40 DUP1 MLOAD DUP1 DUP3 ADD SWAP1 SWAP2 MSTORE PUSH1 0x0 DUP1 DUP3 MSTORE PUSH1 0x20 DUP3 ADD MSTORE DUP2 MSTORE PUSH1 0x20 ADD SWAP1 PUSH1 0x1 SWAP1 SUB SWAP1 DUP2 PUSH2 0x583 JUMPI SWAP1 POP JUMPDEST POP SWAP1 POP PUSH1 0x0 DUP1 JUMPDEST PUSH1 0x1 PUSH1 0x1 PUSH1 0xA0 SHL SUB DUP6 AND PUSH1 0x0 SWAP1 DUP2 MSTORE PUSH1 0x2 PUSH1 0x20 MSTORE PUSH1 0x40 SWAP1 KECCAK256 PUSH1 0x1 ADD SLOAD DUP2 LT ISZERO PUSH2 0x6C0 JUMPI PUSH1 0x1 PUSH1 0x1 PUSH1 0xA0 SHL SUB DUP6 AND PUSH1 0x0 SWAP1 DUP2 MSTORE PUSH1 0x2 PUSH1 0x20 MSTORE PUSH1 0x40 DUP2 KECCAK256 PUSH1 0x1 ADD DUP1 SLOAD DUP4 SWAP1 DUP2 LT PUSH2 0x601 JUMPI PUSH2 0x601 PUSH2 0xE39 JUMP JUMPDEST PUSH1 0x0 SWAP2 DUP3 MSTORE PUSH1 0x20 SWAP1 SWAP2 KECCAK256 PUSH1 0x2 SWAP1 SWAP2 MUL ADD SLOAD PUSH1 0x1 PUSH1 0x1 PUSH1 0xA0 SHL SUB AND EQ PUSH2 0x6AE JUMPI PUSH1 0x1 PUSH1 0x1 PUSH1 0xA0 SHL SUB DUP6 AND PUSH1 0x0 SWAP1 DUP2 MSTORE PUSH1 0x2 PUSH1 0x20 MSTORE PUSH1 0x40 SWAP1 KECCAK256 PUSH1 0x1 ADD DUP1 SLOAD DUP3 SWAP1 DUP2 LT PUSH2 0x64D JUMPI PUSH2 0x64D PUSH2 0xE39 JUMP JUMPDEST PUSH1 0x0 SWAP2 DUP3 MSTORE PUSH1 0x20 SWAP2 DUP3 SWAP1 KECCAK256 PUSH1 0x40 DUP1 MLOAD DUP1 DUP3 ADD SWAP1 SWAP2 MSTORE PUSH1 0x2 SWAP1 SWAP3 MUL ADD DUP1 SLOAD PUSH1 0x1 PUSH1 0x1 PUSH1 0xA0 SHL SUB AND DUP3 MSTORE PUSH1 0x1 ADD SLOAD SWAP2 DUP2 ADD SWAP2 SWAP1 SWAP2 MSTORE DUP4 MLOAD DUP5 SWAP1 DUP5 SWAP1 DUP2 LT PUSH2 0x694 JUMPI PUSH2 0x694 PUSH2 0xE39 JUMP JUMPDEST PUSH1 0x20 MUL PUSH1 0x20 ADD ADD DUP2 SWAP1 MSTORE POP DUP2 DUP1 PUSH2 0x6AA SWAP1 PUSH2 0xE4F JUMP JUMPDEST SWAP3 POP POP JUMPDEST DUP1 PUSH2 0x6B8 DUP2 PUSH2 0xE4F JUMP JUMPDEST SWAP2 POP POP PUSH2 0x5B1 JUMP JUMPDEST POP SWAP1 SWAP4 SWAP3 POP POP POP JUMP JUMPDEST PUSH1 0x40 DUP1 MLOAD PUSH1 0x0 DUP1 DUP3 MSTORE PUSH1 0x20 DUP3 ADD SWAP1 SWAP3 MSTORE SWAP1 PUSH2 0x706 JUMP JUMPDEST PUSH1 0x40 DUP1 MLOAD DUP1 DUP3 ADD SWAP1 SWAP2 MSTORE PUSH1 0x0 DUP1 DUP3 MSTORE PUSH1 0x20 DUP3 ADD MSTORE DUP2 MSTORE PUSH1 0x20 ADD SWAP1 PUSH1 0x1 SWAP1 SUB SWAP1 DUP2 PUSH2 0x6DF JUMPI SWAP1 POP JUMPDEST POP SWAP3 SWAP2 POP POP JUMP JUMPDEST PUSH2 0x715 PUSH2 0x9BC JUMP JUMPDEST CALLER PUSH1 0x0 SWAP1 DUP2 MSTORE PUSH1 0x2 PUSH1 0x20 MSTORE PUSH1 0x40 SWAP1 KECCAK256 SLOAD ISZERO PUSH2 0x763 JUMPI PUSH1 0x0 PUSH2 0x735 CALLER PUSH2 0xA15 JUMP JUMPDEST CALLER PUSH1 0x0 SWAP1 DUP2 MSTORE PUSH1 0x2 PUSH1 0x20 MSTORE PUSH1 0x40 DUP2 KECCAK256 PUSH1 0x3 ADD DUP1 SLOAD SWAP3 SWAP4 POP DUP4 SWAP3 SWAP1 SWAP2 SWAP1 PUSH2 0x75C SWAP1 DUP5 SWAP1 PUSH2 0xE26 JUMP JUMPDEST SWAP1 SWAP2 SSTORE POP POP POP JUMPDEST PUSH1 0x40 MLOAD PUSH4 0x31A9108F PUSH1 0xE1 SHL DUP2 MSTORE PUSH1 0x4 DUP2 ADD DUP3 SWAP1 MSTORE CALLER SWAP1 PUSH1 0x1 PUSH1 0x1 PUSH1 0xA0 SHL SUB PUSH32 0x0 AND SWAP1 PUSH4 0x6352211E SWAP1 PUSH1 0x24 ADD PUSH1 0x20 PUSH1 0x40 MLOAD DUP1 DUP4 SUB DUP2 DUP7 GAS STATICCALL ISZERO DUP1 ISZERO PUSH2 0x7CA JUMPI RETURNDATASIZE PUSH1 0x0 DUP1 RETURNDATACOPY RETURNDATASIZE PUSH1 0x0 REVERT JUMPDEST POP POP POP POP PUSH1 0x40 MLOAD RETURNDATASIZE PUSH1 0x1F NOT PUSH1 0x1F DUP3 ADD AND DUP3 ADD DUP1 PUSH1 0x40 MSTORE POP DUP2 ADD SWAP1 PUSH2 0x7EE SWAP2 SWAP1 PUSH2 0xE95 JUMP JUMPDEST PUSH1 0x1 PUSH1 0x1 PUSH1 0xA0 SHL SUB AND EQ PUSH2 0x844 JUMPI PUSH1 0x40 MLOAD PUSH3 0x461BCD PUSH1 0xE5 SHL DUP2 MSTORE PUSH1 0x20 PUSH1 0x4 DUP3 ADD MSTORE PUSH1 0x1A PUSH1 0x24 DUP3 ADD MSTORE PUSH32 0x596F7520646F206E6F74206F776E207468697320746F6B656E21000000000000 PUSH1 0x44 DUP3 ADD MSTORE PUSH1 0x64 ADD PUSH2 0x25A JUMP JUMPDEST PUSH1 0x40 MLOAD PUSH4 0x23B872DD PUSH1 0xE0 SHL DUP2 MSTORE CALLER PUSH1 0x4 DUP3 ADD MSTORE ADDRESS PUSH1 0x24 DUP3 ADD MSTORE PUSH1 0x44 DUP2 ADD DUP3 SWAP1 MSTORE PUSH32 0x0 PUSH1 0x1 PUSH1 0x1 PUSH1 0xA0 SHL SUB AND SWAP1 PUSH4 0x23B872DD SWAP1 PUSH1 0x64 ADD PUSH1 0x0 PUSH1 0x40 MLOAD DUP1 DUP4 SUB DUP2 PUSH1 0x0 DUP8 DUP1 EXTCODESIZE ISZERO DUP1 ISZERO PUSH2 0x8B2 JUMPI PUSH1 0x0 DUP1 REVERT JUMPDEST POP GAS CALL ISZERO DUP1 ISZERO PUSH2 0x8C6 JUMPI RETURNDATASIZE PUSH1 0x0 DUP1 RETURNDATACOPY RETURNDATASIZE PUSH1 0x0 REVERT JUMPDEST POP POP PUSH1 0x40 DUP1 MLOAD DUP1 DUP3 ADD DUP3 MSTORE CALLER DUP1 DUP3 MSTORE PUSH1 0x20 DUP1 DUP4 ADD DUP8 DUP2 MSTORE PUSH1 0x0 DUP4 DUP2 MSTORE PUSH1 0x2 DUP1 DUP5 MSTORE SWAP6 DUP2 KECCAK256 PUSH1 0x1 DUP1 DUP3 ADD DUP1 SLOAD DUP1 DUP4 ADD DUP3 SSTORE SWAP1 DUP5 MSTORE SWAP5 DUP4 KECCAK256 DUP8 MLOAD SWAP6 SWAP1 SWAP9 MUL SWAP1 SWAP8 ADD DUP1 SLOAD PUSH1 0x1 PUSH1 0x1 PUSH1 0xA0 SHL SUB NOT AND PUSH1 0x1 PUSH1 0x1 PUSH1 0xA0 SHL SUB SWAP1 SWAP6 AND SWAP5 SWAP1 SWAP5 OR DUP5 SSTORE SWAP2 MLOAD SWAP3 SWAP1 SWAP6 ADD SWAP2 SWAP1 SWAP2 SSTORE SWAP1 DUP4 MSTORE DUP1 SLOAD SWAP2 SWAP5 POP SWAP1 SWAP3 POP SWAP1 PUSH2 0x941 DUP4 PUSH2 0xE4F JUMP JUMPDEST SWAP1 SWAP2 SSTORE POP POP POP PUSH1 0x0 DUP2 DUP2 MSTORE PUSH1 0x3 PUSH1 0x20 SWAP1 DUP2 MSTORE PUSH1 0x40 DUP1 DUP4 KECCAK256 DUP1 SLOAD PUSH1 0x1 PUSH1 0x1 PUSH1 0xA0 SHL SUB NOT AND CALLER SWAP1 DUP2 OR SWAP1 SWAP2 SSTORE DUP4 MSTORE PUSH1 0x2 SWAP2 DUP3 SWAP1 MSTORE SWAP1 SWAP2 KECCAK256 TIMESTAMP SWAP2 ADD SSTORE PUSH2 0x444 PUSH1 0x1 PUSH1 0x0 SSTORE JUMP JUMPDEST PUSH1 0x1 PUSH1 0x1 PUSH1 0xA0 SHL SUB DUP2 AND PUSH1 0x0 SWAP1 DUP2 MSTORE PUSH1 0x2 PUSH1 0x20 MSTORE PUSH1 0x40 DUP2 KECCAK256 PUSH1 0x3 ADD SLOAD DUP2 SWAP1 PUSH2 0x9AB DUP5 PUSH2 0xA15 JUMP JUMPDEST PUSH2 0x9B5 SWAP2 SWAP1 PUSH2 0xE26 JUMP JUMPDEST SWAP4 SWAP3 POP POP POP JUMP JUMPDEST PUSH1 0x2 PUSH1 0x0 SLOAD SUB PUSH2 0xA0E JUMPI PUSH1 0x40 MLOAD PUSH3 0x461BCD PUSH1 0xE5 SHL DUP2 MSTORE PUSH1 0x20 PUSH1 0x4 DUP3 ADD MSTORE PUSH1 0x1F PUSH1 0x24 DUP3 ADD MSTORE PUSH32 0x5265656E7472616E637947756172643A207265656E7472616E742063616C6C00 PUSH1 0x44 DUP3 ADD MSTORE PUSH1 0x64 ADD PUSH2 0x25A JUMP JUMPDEST PUSH1 0x2 PUSH1 0x0 SSTORE JUMP JUMPDEST PUSH1 0x1 SLOAD PUSH1 0x1 PUSH1 0x1 PUSH1 0xA0 SHL SUB DUP3 AND PUSH1 0x0 SWAP1 DUP2 MSTORE PUSH1 0x2 PUSH1 0x20 DUP2 SWAP1 MSTORE PUSH1 0x40 DUP3 KECCAK256 DUP1 SLOAD SWAP2 ADD SLOAD SWAP2 SWAP3 PUSH2 0xE10 SWAP3 SWAP1 SWAP2 SWAP1 PUSH2 0xA4A SWAP1 TIMESTAMP PUSH2 0xEB2 JUMP JUMPDEST PUSH2 0xA54 SWAP2 SWAP1 PUSH2 0xEC5 JUMP JUMPDEST PUSH2 0xA5E SWAP2 SWAP1 PUSH2 0xEC5 JUMP JUMPDEST PUSH2 0xA68 SWAP2 SWAP1 PUSH2 0xEDC JUMP JUMPDEST SWAP3 SWAP2 POP POP JUMP JUMPDEST PUSH1 0x1 PUSH1 0x0 SSTORE JUMP JUMPDEST PUSH1 0x40 DUP1 MLOAD PUSH1 0x1 PUSH1 0x1 PUSH1 0xA0 SHL SUB DUP5 AND PUSH1 0x24 DUP3 ADD MSTORE PUSH1 0x44 DUP1 DUP3 ADD DUP5 SWAP1 MSTORE DUP3 MLOAD DUP1 DUP4 SUB SWAP1 SWAP2 ADD DUP2 MSTORE PUSH1 0x64 SWAP1 SWAP2 ADD SWAP1 SWAP2 MSTORE PUSH1 0x20 DUP2 ADD DUP1 MLOAD PUSH28 0xFFFFFFFFFFFFFFFFFFFFFFFFFFFFFFFFFFFFFFFFFFFFFFFFFFFFFFFF AND PUSH4 0xA9059CBB PUSH1 0xE0 SHL OR SWAP1 MSTORE PUSH2 0xADC SWAP1 DUP5 SWAP1 PUSH2 0xAE1 JUMP JUMPDEST POP POP POP JUMP JUMPDEST PUSH1 0x0 PUSH2 0xB36 DUP3 PUSH1 0x40 MLOAD DUP1 PUSH1 0x40 ADD PUSH1 0x40 MSTORE DUP1 PUSH1 0x20 DUP2 MSTORE PUSH1 0x20 ADD PUSH32 0x5361666545524332303A206C6F772D6C6576656C2063616C6C206661696C6564 DUP2 MSTORE POP DUP6 PUSH1 0x1 PUSH1 0x1 PUSH1 0xA0 SHL SUB AND PUSH2 0xBC6 SWAP1 SWAP3 SWAP2 SWAP1 PUSH4 0xFFFFFFFF AND JUMP JUMPDEST DUP1 MLOAD SWAP1 SWAP2 POP ISZERO PUSH2 0xADC JUMPI DUP1 DUP1 PUSH1 0x20 ADD SWAP1 MLOAD DUP2 ADD SWAP1 PUSH2 0xB54 SWAP2 SWAP1 PUSH2 0xEFE JUMP JUMPDEST PUSH2 0xADC JUMPI PUSH1 0x40 MLOAD PUSH3 0x461BCD PUSH1 0xE5 SHL DUP2 MSTORE PUSH1 0x20 PUSH1 0x4 DUP3 ADD MSTORE PUSH1 0x2A PUSH1 0x24 DUP3 ADD MSTORE PUSH32 0x5361666545524332303A204552433230206F7065726174696F6E20646964206E PUSH1 0x44 DUP3 ADD MSTORE PUSH32 0x6F74207375636365656400000000000000000000000000000000000000000000 PUSH1 0x64 DUP3 ADD MSTORE PUSH1 0x84 ADD PUSH2 0x25A JUMP JUMPDEST PUSH1 0x60 PUSH2 0xBD5 DUP5 DUP5 PUSH1 0x0 DUP6 PUSH2 0xBDD JUMP JUMPDEST SWAP5 SWAP4 POP POP POP POP JUMP JUMPDEST PUSH1 0x60 DUP3 SELFBALANCE LT ISZERO PUSH2 0xC55 JUMPI PUSH1 0x40 MLOAD PUSH3 0x461BCD PUSH1 0xE5 SHL DUP2 MSTORE PUSH1 0x20 PUSH1 0x4 DUP3 ADD MSTORE PUSH1 0x26 PUSH1 0x24 DUP3 ADD MSTORE PUSH32 0x416464726573733A20696E73756666696369656E742062616C616E636520666F PUSH1 0x44 DUP3 ADD MSTORE PUSH32 0x722063616C6C0000000000000000000000000000000000000000000000000000 PUSH1 0x64 DUP3 ADD MSTORE PUSH1 0x84 ADD PUSH2 0x25A JUMP JUMPDEST PUSH1 0x0 DUP1 DUP7 PUSH1 0x1 PUSH1 0x1 PUSH1 0xA0 SHL SUB AND DUP6 DUP8 PUSH1 0x40 MLOAD PUSH2 0xC71 SWAP2 SWAP1 PUSH2 0xF44 JUMP JUMPDEST PUSH1 0x0 PUSH1 0x40 MLOAD DUP1 DUP4 SUB DUP2 DUP6 DUP8 GAS CALL SWAP3 POP POP POP RETURNDATASIZE DUP1 PUSH1 0x0 DUP2 EQ PUSH2 0xCAE JUMPI PUSH1 0x40 MLOAD SWAP2 POP PUSH1 0x1F NOT PUSH1 0x3F RETURNDATASIZE ADD AND DUP3 ADD PUSH1 0x40 MSTORE RETURNDATASIZE DUP3 MSTORE RETURNDATASIZE PUSH1 0x0 PUSH1 0x20 DUP5 ADD RETURNDATACOPY PUSH2 0xCB3 JUMP JUMPDEST PUSH1 0x60 SWAP2 POP JUMPDEST POP SWAP2 POP SWAP2 POP PUSH2 0xCC4 DUP8 DUP4 DUP4 DUP8 PUSH2 0xCCF JUMP JUMPDEST SWAP8 SWAP7 POP POP POP POP POP POP POP JUMP JUMPDEST PUSH1 0x60 DUP4 ISZERO PUSH2 0xD3E JUMPI DUP3 MLOAD PUSH1 0x0 SUB PUSH2 0xD37 JUMPI PUSH1 0x1 PUSH1 0x1 PUSH1 0xA0 SHL SUB DUP6 AND EXTCODESIZE PUSH2 0xD37 JUMPI PUSH1 0x40 MLOAD PUSH3 0x461BCD PUSH1 0xE5 SHL DUP2 MSTORE PUSH1 0x20 PUSH1 0x4 DUP3 ADD MSTORE PUSH1 0x1D PUSH1 0x24 DUP3 ADD MSTORE PUSH32 0x416464726573733A2063616C6C20746F206E6F6E2D636F6E7472616374000000 PUSH1 0x44 DUP3 ADD MSTORE PUSH1 0x64 ADD PUSH2 0x25A JUMP JUMPDEST POP DUP2 PUSH2 0xBD5 JUMP JUMPDEST PUSH2 0xBD5 DUP4 DUP4 DUP2 MLOAD ISZERO PUSH2 0xD53 JUMPI DUP2 MLOAD DUP1 DUP4 PUSH1 0x20 ADD REVERT JUMPDEST DUP1 PUSH1 0x40 MLOAD PUSH3 0x461BCD PUSH1 0xE5 SHL DUP2 MSTORE PUSH1 0x4 ADD PUSH2 0x25A SWAP2 SWAP1 PUSH2 0xF60 JUMP JUMPDEST PUSH1 0x0 PUSH1 0x20 DUP3 DUP5 SUB SLT ISZERO PUSH2 0xD7F JUMPI PUSH1 0x0 DUP1 REVERT JUMPDEST POP CALLDATALOAD SWAP2 SWAP1 POP JUMP JUMPDEST PUSH1 0x1 PUSH1 0x1 PUSH1 0xA0 SHL SUB DUP2 AND DUP2 EQ PUSH2 0x444 JUMPI PUSH1 0x0 DUP1 REVERT JUMPDEST PUSH1 0x0 PUSH1 0x20 DUP3 DUP5 SUB SLT ISZERO PUSH2 0xDAD JUMPI PUSH1 0x0 DUP1 REVERT JUMPDEST DUP2 CALLDATALOAD PUSH2 0x9B5 DUP2 PUSH2 0xD86 JUMP JUMPDEST PUSH1 0x20 DUP1 DUP3 MSTORE DUP3 MLOAD DUP3 DUP3 ADD DUP2 SWAP1 MSTORE PUSH1 0x0 SWAP2 SWAP1 PUSH1 0x40 SWAP1 DUP2 DUP6 ADD SWAP1 DUP7 DUP5 ADD DUP6 JUMPDEST DUP3 DUP2 LT ISZERO PUSH2 0xE03 JUMPI DUP2 MLOAD DUP1 MLOAD PUSH1 0x1 PUSH1 0x1 PUSH1 0xA0 SHL SUB AND DUP6 MSTORE DUP7 ADD MLOAD DUP7 DUP6 ADD MSTORE SWAP3 DUP5 ADD SWAP3 SWAP1 DUP6 ADD SWAP1 PUSH1 0x1 ADD PUSH2 0xDD5 JUMP JUMPDEST POP SWAP2 SWAP8 SWAP7 POP POP POP POP POP POP POP JUMP JUMPDEST PUSH4 0x4E487B71 PUSH1 0xE0 SHL PUSH1 0x0 MSTORE PUSH1 0x11 PUSH1 0x4 MSTORE PUSH1 0x24 PUSH1 0x0 REVERT JUMPDEST DUP1 DUP3 ADD DUP1 DUP3 GT ISZERO PUSH2 0xA68 JUMPI PUSH2 0xA68 PUSH2 0xE10 JUMP JUMPDEST PUSH4 0x4E487B71 PUSH1 0xE0 SHL PUSH1 0x0 MSTORE PUSH1 0x32 PUSH1 0x4 MSTORE PUSH1 0x24 PUSH1 0x0 REVERT JUMPDEST PUSH1 0x0 PUSH1 0x1 DUP3 ADD PUSH2 0xE61 JUMPI PUSH2 0xE61 PUSH2 0xE10 JUMP JUMPDEST POP PUSH1 0x1 ADD SWAP1 JUMP JUMPDEST PUSH1 0x0 DUP2 PUSH2 0xE77 JUMPI PUSH2 0xE77 PUSH2 0xE10 JUMP JUMPDEST POP PUSH1 0x0 NOT ADD SWAP1 JUMP JUMPDEST PUSH4 0x4E487B71 PUSH1 0xE0 SHL PUSH1 0x0 MSTORE PUSH1 0x41 PUSH1 0x4 MSTORE PUSH1 0x24 PUSH1 0x0 REVERT JUMPDEST PUSH1 0x0 PUSH1 0x20 DUP3 DUP5 SUB SLT ISZERO PUSH2 0xEA7 JUMPI PUSH1 0x0 DUP1 REVERT JUMPDEST DUP2 MLOAD PUSH2 0x9B5 DUP2 PUSH2 0xD86 JUMP JUMPDEST DUP2 DUP2 SUB DUP2 DUP2 GT ISZERO PUSH2 0xA68 JUMPI PUSH2 0xA68 PUSH2 0xE10 JUMP JUMPDEST DUP1 DUP3 MUL DUP2 ISZERO DUP3 DUP3 DIV DUP5 EQ OR PUSH2 0xA68 JUMPI PUSH2 0xA68 PUSH2 0xE10 JUMP JUMPDEST PUSH1 0x0 DUP3 PUSH2 0xEF9 JUMPI PUSH4 0x4E487B71 PUSH1 0xE0 SHL PUSH1 0x0 MSTORE PUSH1 0x12 PUSH1 0x4 MSTORE PUSH1 0x24 PUSH1 0x0 REVERT JUMPDEST POP DIV SWAP1 JUMP JUMPDEST PUSH1 0x0 PUSH1 0x20 DUP3 DUP5 SUB SLT ISZERO PUSH2 0xF10 JUMPI PUSH1 0x0 DUP1 REVERT JUMPDEST DUP2 MLOAD DUP1 ISZERO ISZERO DUP2 EQ PUSH2 0x9B5 JUMPI PUSH1 0x0 DUP1 REVERT JUMPDEST PUSH1 0x0 JUMPDEST DUP4 DUP2 LT ISZERO PUSH2 0xF3B JUMPI DUP2 DUP2 ADD MLOAD DUP4 DUP3 ADD MSTORE PUSH1 0x20 ADD PUSH2 0xF23 JUMP JUMPDEST POP POP PUSH1 0x0 SWAP2 ADD MSTORE JUMP JUMPDEST PUSH1 0x0 DUP3 MLOAD PUSH2 0xF56 DUP2 DUP5 PUSH1 0x20 DUP8 ADD PUSH2 0xF20 JUMP JUMPDEST SWAP2 SWAP1 SWAP2 ADD SWAP3 SWAP2 POP POP JUMP JUMPDEST PUSH1 0x20 DUP2 MSTORE PUSH1 0x0 DUP3 MLOAD DUP1 PUSH1 0x20 DUP5 ADD MSTORE PUSH2 0xF7F DUP2 PUSH1 0x40 DUP6 ADD PUSH1 0x20 DUP8 ADD PUSH2 0xF20 JUMP JUMPDEST PUSH1 0x1F ADD PUSH1 0x1F NOT AND SWAP2 SWAP1 SWAP2 ADD PUSH1 0x40 ADD SWAP3 SWAP2 POP POP JUMP INVALID LOG2 PUSH5 0x6970667358 0x22 SLT KECCAK256 0xE7 PUSH23 0x5604ACDA5124D5935DC90EC44544C0C48BC209B5440190 0xB8 PUSH1 0x0 0xB2 CODECOPY PUSH24 0x8F64736F6C63430008110033000000000000000000000000 "
    },
    "gasEstimates": {
      "creation": {
        "codeDepositCost": "808200",
        "executionCost": "infinite",
        "totalCost": "infinite"
      },
      "external": {
        "availableRewards(address)": "infinite",
        "claimRewards()": "infinite",
        "getStakedToken(address)": "infinite",
        "nftCollection()": "infinite",
        "rewardsToken()": "infinite",
        "stake(uint256)": "infinite",
        "stakerAddress(uint256)": "2522",
        "stakers(address)": "6811",
        "withdraw(uint256)": "infinite"
      },
      "internal": {
        "calculateRewards(address)": "infinite"
      }
    },
    "methodIdentifiers": {
      "availableRewards(address)": "f854a27f",
      "claimRewards()": "372500ab",
      "getStakedToken(address)": "5bce04f7",
      "nftCollection()": "6588103b",
      "rewardsToken()": "d1af0c7d",
      "stake(uint256)": "a694fc3a",
      "stakerAddress(uint256)": "94067045",
      "stakers(address)": "9168ae72",
      "withdraw(uint256)": "2e1a7d4d"
    }
  },
  "storageLayout": {
    "storage": [
      {
        "astId": 485,
        "contract": "NFTStaking.sol:ERC721Staking",
        "label": "_status",
        "offset": 0,
        "slot": "0",
        "type": "t_uint256"
      },
      {
        "astId": 53,
        "contract": "NFTStaking.sol:ERC721Staking",
        "label": "rewardsPerHour",
        "offset": 0,
        "slot": "1",
        "type": "t_uint256"
      },
      {
        "astId": 58,
        "contract": "NFTStaking.sol:ERC721Staking",
        "label": "stakers",
        "offset": 0,
        "slot": "2",
        "type": "t_mapping(t_address,t_struct(Staker)51_storage)"
      },
      {
        "astId": 62,
        "contract": "NFTStaking.sol:ERC721Staking",
        "label": "stakerAddress",
        "offset": 0,
        "slot": "3",
        "type": "t_mapping(t_uint256,t_address)"
      }
    ],
    "types": {
      "t_address": {
        "encoding": "inplace",
        "label": "address",
        "numberOfBytes": "20"
      },
      "t_array(t_struct(StakedToken)40_storage)dyn_storage": {
        "base": "t_struct(StakedToken)40_storage",
        "encoding": "dynamic_array",
        "label": "struct ERC721Staking.StakedToken[]",
        "numberOfBytes": "32"
      },
      "t_mapping(t_address,t_struct(Staker)51_storage)": {
        "encoding": "mapping",
        "key": "t_address",
        "label": "mapping(address => struct ERC721Staking.Staker)",
        "numberOfBytes": "32",
        "value": "t_struct(Staker)51_storage"
      },
      "t_mapping(t_uint256,t_address)": {
        "encoding": "mapping",
        "key": "t_uint256",
        "label": "mapping(uint256 => address)",
        "numberOfBytes": "32",
        "value": "t_address"
      },
      "t_struct(StakedToken)40_storage": {
        "encoding": "inplace",
        "label": "struct ERC721Staking.StakedToken",
        "members": [
          {
            "astId": 37,
            "contract": "NFTStaking.sol:ERC721Staking",
            "label": "staker",
            "offset": 0,
            "slot": "0",
            "type": "t_address"
          },
          {
            "astId": 39,
            "contract": "NFTStaking.sol:ERC721Staking",
            "label": "tokenId",
            "offset": 0,
            "slot": "1",
            "type": "t_uint256"
          }
        ],
        "numberOfBytes": "64"
      },
      "t_struct(Staker)51_storage": {
        "encoding": "inplace",
        "label": "struct ERC721Staking.Staker",
        "members": [
          {
            "astId": 42,
            "contract": "NFTStaking.sol:ERC721Staking",
            "label": "amountStaked",
            "offset": 0,
            "slot": "0",
            "type": "t_uint256"
          },
          {
            "astId": 46,
            "contract": "NFTStaking.sol:ERC721Staking",
            "label": "stakedTokens",
            "offset": 0,
            "slot": "1",
            "type": "t_array(t_struct(StakedToken)40_storage)dyn_storage"
          },
          {
            "astId": 48,
            "contract": "NFTStaking.sol:ERC721Staking",
            "label": "timeOfLastUpdate",
            "offset": 0,
            "slot": "2",
            "type": "t_uint256"
          },
          {
            "astId": 50,
            "contract": "NFTStaking.sol:ERC721Staking",
            "label": "unclaimedRewards",
            "offset": 0,
            "slot": "3",
            "type": "t_uint256"
          }
        ],
        "numberOfBytes": "128"
      },
      "t_uint256": {
        "encoding": "inplace",
        "label": "uint256",
        "numberOfBytes": "32"
      }
    }
  },
  "userdoc": {
    "kind": "user",
    "methods": {},
    "version": 1
  }
}